{
  "_format": "hh-sol-artifact-1",
  "contractName": "ASE",
  "sourceName": "contracts/Lock.sol",
  "abi": [
    {
      "inputs": [],
      "stateMutability": "nonpayable",
      "type": "constructor"
    },
    {
      "anonymous": false,
      "inputs": [
        {
          "indexed": true,
          "internalType": "address",
          "name": "owner",
          "type": "address"
        },
        {
          "indexed": true,
          "internalType": "address",
          "name": "approved",
          "type": "address"
        },
        {
          "indexed": true,
          "internalType": "uint256",
          "name": "tokenId",
          "type": "uint256"
        }
      ],
      "name": "Approval",
      "type": "event"
    },
    {
      "anonymous": false,
      "inputs": [
        {
          "indexed": true,
          "internalType": "address",
          "name": "owner",
          "type": "address"
        },
        {
          "indexed": true,
          "internalType": "address",
          "name": "operator",
          "type": "address"
        },
        {
          "indexed": false,
          "internalType": "bool",
          "name": "approved",
          "type": "bool"
        }
      ],
      "name": "ApprovalForAll",
      "type": "event"
    },
    {
      "anonymous": false,
      "inputs": [
        {
          "indexed": true,
          "internalType": "address",
          "name": "from",
          "type": "address"
        },
        {
          "indexed": true,
          "internalType": "address",
          "name": "to",
          "type": "address"
        },
        {
          "indexed": true,
          "internalType": "uint256",
          "name": "tokenId",
          "type": "uint256"
        }
      ],
      "name": "Transfer",
      "type": "event"
    },
    {
      "anonymous": false,
      "inputs": [
        {
          "indexed": true,
          "internalType": "uint256",
          "name": "tokenid",
          "type": "uint256"
        },
        {
          "indexed": false,
          "internalType": "address",
          "name": "sender",
          "type": "address"
        },
        {
          "indexed": false,
          "internalType": "address",
          "name": "owner",
          "type": "address"
        },
        {
          "indexed": false,
          "internalType": "uint256",
          "name": "price",
          "type": "uint256"
        },
        {
          "indexed": false,
          "internalType": "bool",
          "name": "issold",
          "type": "bool"
        }
      ],
      "name": "infoMarketitem",
      "type": "event"
    },
    {
      "inputs": [
        {
          "internalType": "string",
          "name": "tokenuri",
          "type": "string"
        },
        {
          "internalType": "uint256",
          "name": "amount",
          "type": "uint256"
        }
      ],
      "name": "Createnft",
      "outputs": [
        {
          "internalType": "uint256",
          "name": "",
          "type": "uint256"
        }
      ],
      "stateMutability": "payable",
      "type": "function"
    },
    {
      "inputs": [
        {
          "internalType": "address",
          "name": "to",
          "type": "address"
        },
        {
          "internalType": "uint256",
          "name": "tokenId",
          "type": "uint256"
        }
      ],
      "name": "approve",
      "outputs": [],
      "stateMutability": "nonpayable",
      "type": "function"
    },
    {
      "inputs": [
        {
          "internalType": "address",
          "name": "owner",
          "type": "address"
        }
      ],
      "name": "balanceOf",
      "outputs": [
        {
          "internalType": "uint256",
          "name": "",
          "type": "uint256"
        }
      ],
      "stateMutability": "view",
      "type": "function"
    },
    {
      "inputs": [],
      "name": "fetchnft",
      "outputs": [
        {
          "components": [
            {
              "internalType": "uint256",
              "name": "tokenid",
              "type": "uint256"
            },
            {
              "internalType": "address payable",
              "name": "seller",
              "type": "address"
            },
            {
              "internalType": "address",
              "name": "owner",
              "type": "address"
            },
            {
              "internalType": "uint256",
              "name": "price",
              "type": "uint256"
            },
            {
              "internalType": "bool",
              "name": "issold",
              "type": "bool"
            }
          ],
          "internalType": "struct ASE.Marketitems[]",
          "name": "",
          "type": "tuple[]"
        }
      ],
      "stateMutability": "view",
      "type": "function"
    },
    {
      "inputs": [
        {
          "internalType": "uint256",
          "name": "tokenId",
          "type": "uint256"
        }
      ],
      "name": "getApproved",
      "outputs": [
        {
          "internalType": "address",
          "name": "",
          "type": "address"
        }
      ],
      "stateMutability": "view",
      "type": "function"
    },
    {
      "inputs": [],
      "name": "getListingPrice",
      "outputs": [
        {
          "internalType": "uint256",
          "name": "",
          "type": "uint256"
        }
      ],
      "stateMutability": "view",
      "type": "function"
    },
    {
      "inputs": [
        {
          "internalType": "address",
          "name": "owner",
          "type": "address"
        },
        {
          "internalType": "address",
          "name": "operator",
          "type": "address"
        }
      ],
      "name": "isApprovedForAll",
      "outputs": [
        {
          "internalType": "bool",
          "name": "",
          "type": "bool"
        }
      ],
      "stateMutability": "view",
      "type": "function"
    },
    {
      "inputs": [],
      "name": "name",
      "outputs": [
        {
          "internalType": "string",
          "name": "",
          "type": "string"
        }
      ],
      "stateMutability": "view",
      "type": "function"
    },
    {
      "inputs": [
        {
          "internalType": "uint256",
          "name": "tokenId",
          "type": "uint256"
        }
      ],
      "name": "ownerOf",
      "outputs": [
        {
          "internalType": "address",
          "name": "",
          "type": "address"
        }
      ],
      "stateMutability": "view",
      "type": "function"
    },
    {
      "inputs": [
        {
          "internalType": "uint256",
          "name": "tokenid",
          "type": "uint256"
        },
        {
          "internalType": "uint256",
          "name": "amount",
          "type": "uint256"
        }
      ],
      "name": "resellnft",
      "outputs": [],
      "stateMutability": "payable",
      "type": "function"
    },
    {
      "inputs": [
        {
          "internalType": "address",
          "name": "from",
          "type": "address"
        },
        {
          "internalType": "address",
          "name": "to",
          "type": "address"
        },
        {
          "internalType": "uint256",
          "name": "tokenId",
          "type": "uint256"
        }
      ],
      "name": "safeTransferFrom",
      "outputs": [],
      "stateMutability": "nonpayable",
      "type": "function"
    },
    {
      "inputs": [
        {
          "internalType": "address",
          "name": "from",
          "type": "address"
        },
        {
          "internalType": "address",
          "name": "to",
          "type": "address"
        },
        {
          "internalType": "uint256",
          "name": "tokenId",
          "type": "uint256"
        },
        {
          "internalType": "bytes",
          "name": "data",
          "type": "bytes"
        }
      ],
      "name": "safeTransferFrom",
      "outputs": [],
      "stateMutability": "nonpayable",
      "type": "function"
    },
    {
      "inputs": [
        {
          "internalType": "uint256",
          "name": "tokenid",
          "type": "uint256"
        }
      ],
      "name": "salenft",
      "outputs": [],
      "stateMutability": "payable",
      "type": "function"
    },
    {
      "inputs": [],
      "name": "saleout",
      "outputs": [
        {
          "components": [
            {
              "internalType": "uint256",
              "name": "tokenid",
              "type": "uint256"
            },
            {
              "internalType": "address payable",
              "name": "seller",
              "type": "address"
            },
            {
              "internalType": "address",
              "name": "owner",
              "type": "address"
            },
            {
              "internalType": "uint256",
              "name": "price",
              "type": "uint256"
            },
            {
              "internalType": "bool",
              "name": "issold",
              "type": "bool"
            }
          ],
          "internalType": "struct ASE.Marketitems[]",
          "name": "",
          "type": "tuple[]"
        }
      ],
      "stateMutability": "view",
      "type": "function"
    },
    {
      "inputs": [
        {
          "internalType": "address",
          "name": "operator",
          "type": "address"
        },
        {
          "internalType": "bool",
          "name": "approved",
          "type": "bool"
        }
      ],
      "name": "setApprovalForAll",
      "outputs": [],
      "stateMutability": "nonpayable",
      "type": "function"
    },
    {
      "inputs": [
        {
          "internalType": "bytes4",
          "name": "interfaceId",
          "type": "bytes4"
        }
      ],
      "name": "supportsInterface",
      "outputs": [
        {
          "internalType": "bool",
          "name": "",
          "type": "bool"
        }
      ],
      "stateMutability": "view",
      "type": "function"
    },
    {
      "inputs": [],
      "name": "symbol",
      "outputs": [
        {
          "internalType": "string",
          "name": "",
          "type": "string"
        }
      ],
      "stateMutability": "view",
      "type": "function"
    },
    {
      "inputs": [
        {
          "internalType": "uint256",
          "name": "tokenId",
          "type": "uint256"
        }
      ],
      "name": "tokenURI",
      "outputs": [
        {
          "internalType": "string",
          "name": "",
          "type": "string"
        }
      ],
      "stateMutability": "view",
      "type": "function"
    },
    {
      "inputs": [
        {
          "internalType": "address",
          "name": "from",
          "type": "address"
        },
        {
          "internalType": "address",
          "name": "to",
          "type": "address"
        },
        {
          "internalType": "uint256",
          "name": "tokenId",
          "type": "uint256"
        }
      ],
      "name": "transferFrom",
      "outputs": [],
      "stateMutability": "nonpayable",
      "type": "function"
    },
    {
      "inputs": [],
      "name": "unsoldnft",
      "outputs": [
        {
          "components": [
            {
              "internalType": "uint256",
              "name": "tokenid",
              "type": "uint256"
            },
            {
              "internalType": "address payable",
              "name": "seller",
              "type": "address"
            },
            {
              "internalType": "address",
              "name": "owner",
              "type": "address"
            },
            {
              "internalType": "uint256",
              "name": "price",
              "type": "uint256"
            },
            {
              "internalType": "bool",
              "name": "issold",
              "type": "bool"
            }
          ],
          "internalType": "struct ASE.Marketitems[]",
          "name": "",
          "type": "tuple[]"
        }
      ],
      "stateMutability": "view",
      "type": "function"
    },
    {
      "inputs": [
        {
          "internalType": "uint256",
          "name": "_listingprice",
          "type": "uint256"
        }
      ],
      "name": "updatelisting",
      "outputs": [],
      "stateMutability": "payable",
      "type": "function"
    }
  ],
  "bytecode": "0x60806040526608e1bc9bf04000600b553480156200001c57600080fd5b506040518060400160405280600781526020017f4e4654424f4154000000000000000000000000000000000000000000000000008152506040518060400160405280600381526020017f4e4642000000000000000000000000000000000000000000000000000000000081525081600090816200009a919062000370565b508060019081620000ac919062000370565b50505033600a60006101000a81548173ffffffffffffffffffffffffffffffffffffffff021916908373ffffffffffffffffffffffffffffffffffffffff16021790555062000457565b600081519050919050565b7f4e487b7100000000000000000000000000000000000000000000000000000000600052604160045260246000fd5b7f4e487b7100000000000000000000000000000000000000000000000000000000600052602260045260246000fd5b600060028204905060018216806200017857607f821691505b6020821081036200018e576200018d62000130565b5b50919050565b60008190508160005260206000209050919050565b60006020601f8301049050919050565b600082821b905092915050565b600060088302620001f87fffffffffffffffffffffffffffffffffffffffffffffffffffffffffffffffff82620001b9565b620002048683620001b9565b95508019841693508086168417925050509392505050565b6000819050919050565b6000819050919050565b6000620002516200024b62000245846200021c565b62000226565b6200021c565b9050919050565b6000819050919050565b6200026d8362000230565b620002856200027c8262000258565b848454620001c6565b825550505050565b600090565b6200029c6200028d565b620002a981848462000262565b505050565b5b81811015620002d157620002c560008262000292565b600181019050620002af565b5050565b601f8211156200032057620002ea8162000194565b620002f584620001a9565b8101602085101562000305578190505b6200031d6200031485620001a9565b830182620002ae565b50505b505050565b600082821c905092915050565b6000620003456000198460080262000325565b1980831691505092915050565b600062000360838362000332565b9150826002028217905092915050565b6200037b82620000f6565b67ffffffffffffffff81111562000397576200039662000101565b5b620003a382546200015f565b620003b0828285620002d5565b600060209050601f831160018114620003e85760008415620003d3578287015190505b620003df858262000352565b8655506200044f565b601f198416620003f88662000194565b60005b828110156200042257848901518255600182019150602085019450602081019050620003fb565b868310156200044257848901516200043e601f89168262000332565b8355505b6001600288020188555050505b505050505050565b61432380620004676000396000f3fe60806040526004361061012a5760003560e01c806370a08231116100ab578063a22cb4651161006f578063a22cb465146103c9578063a9285e2d146103f2578063b88d4fde14610422578063c87b56dd1461044b578063ce27a93114610488578063e985e9c5146104b35761012a565b806370a08231146102fe57806373702f781461033b5780637de9ebb3146103575780638762ba4d1461038257806395d89b411461039e5761012a565b80631aec3af4116100f25780631aec3af414610228578063222162001461024457806323b872dd1461026f57806342842e0e146102985780636352211e146102c15761012a565b806301ffc9a71461012f57806306fdde031461016c578063081812fc14610197578063095ea7b3146101d457806312e85585146101fd575b600080fd5b34801561013b57600080fd5b5061015660048036038101906101519190612c58565b6104f0565b6040516101639190612ca0565b60405180910390f35b34801561017857600080fd5b506101816105d2565b60405161018e9190612d4b565b60405180910390f35b3480156101a357600080fd5b506101be60048036038101906101b99190612da3565b610664565b6040516101cb9190612e11565b60405180910390f35b3480156101e057600080fd5b506101fb60048036038101906101f69190612e58565b6106aa565b005b34801561020957600080fd5b506102126107c1565b60405161021f9190612ea7565b60405180910390f35b610242600480360381019061023d9190612ec2565b6107cb565b005b34801561025057600080fd5b506102596109bc565b6040516102669190613067565b60405180910390f35b34801561027b57600080fd5b5061029660048036038101906102919190613089565b610ca8565b005b3480156102a457600080fd5b506102bf60048036038101906102ba9190613089565b610d08565b005b3480156102cd57600080fd5b506102e860048036038101906102e39190612da3565b610d28565b6040516102f59190612e11565b60405180910390f35b34801561030a57600080fd5b50610325600480360381019061032091906130dc565b610dae565b6040516103329190612ea7565b60405180910390f35b61035560048036038101906103509190612da3565b610e65565b005b34801561036357600080fd5b5061036c610eff565b6040516103799190613067565b60405180910390f35b61039c60048036038101906103979190612da3565b6111eb565b005b3480156103aa57600080fd5b506103b3611423565b6040516103c09190612d4b565b60405180910390f35b3480156103d557600080fd5b506103f060048036038101906103eb9190613135565b6114b5565b005b61040c600480360381019061040791906131da565b6114cb565b6040516104199190612ea7565b60405180910390f35b34801561042e57600080fd5b506104496004803603810190610444919061336a565b611552565b005b34801561045757600080fd5b50610472600480360381019061046d9190612da3565b6115b4565b60405161047f9190612d4b565b60405180910390f35b34801561049457600080fd5b5061049d6116c6565b6040516104aa9190613067565b60405180910390f35b3480156104bf57600080fd5b506104da60048036038101906104d591906133ed565b61192e565b6040516104e79190612ca0565b60405180910390f35b60007f80ac58cd000000000000000000000000000000000000000000000000000000007bffffffffffffffffffffffffffffffffffffffffffffffffffffffff1916827bffffffffffffffffffffffffffffffffffffffffffffffffffffffff191614806105bb57507f5b5e139f000000000000000000000000000000000000000000000000000000007bffffffffffffffffffffffffffffffffffffffffffffffffffffffff1916827bffffffffffffffffffffffffffffffffffffffffffffffffffffffff1916145b806105cb57506105ca826119c2565b5b9050919050565b6060600080546105e19061345c565b80601f016020809104026020016040519081016040528092919081815260200182805461060d9061345c565b801561065a5780601f1061062f5761010080835404028352916020019161065a565b820191906000526020600020905b81548152906001019060200180831161063d57829003601f168201915b5050505050905090565b600061066f82611a2c565b6004600083815260200190815260200160002060009054906101000a900473ffffffffffffffffffffffffffffffffffffffff169050919050565b60006106b582610d28565b90508073ffffffffffffffffffffffffffffffffffffffff168373ffffffffffffffffffffffffffffffffffffffff1603610725576040517f08c379a000000000000000000000000000000000000000000000000000000000815260040161071c906134ff565b60405180910390fd5b8073ffffffffffffffffffffffffffffffffffffffff16610744611a77565b73ffffffffffffffffffffffffffffffffffffffff16148061077357506107728161076d611a77565b61192e565b5b6107b2576040517f08c379a00000000000000000000000000000000000000000000000000000000081526004016107a990613591565b60405180910390fd5b6107bc8383611a7f565b505050565b6000600b54905090565b600b54341461080f576040517f08c379a0000000000000000000000000000000000000000000000000000000008152600401610806906135fd565b60405180910390fd5b3373ffffffffffffffffffffffffffffffffffffffff166009600084815260200190815260200160002060020160009054906101000a900473ffffffffffffffffffffffffffffffffffffffff1673ffffffffffffffffffffffffffffffffffffffff16146108b3576040517f08c379a00000000000000000000000000000000000000000000000000000000081526004016108aa90613669565b60405180910390fd5b600015156009600084815260200190815260200160002060040160009054906101000a90505050806009600084815260200190815260200160002050503373ffffffffffffffffffffffffffffffffffffffff166009600084815260200190815260200160002060010160009054906101000a905050503073ffffffffffffffffffffffffffffffffffffffff166009600084815260200190815260200160002060020160009054906101000a9050505061096e6008611b38565b610979333083611b94565b817f148543af2976a27506276ef8982c517ba8afb96f5f1df32646f5307fbcac441033308460006040516109b094939291906136e8565b60405180910390a25050565b606060006109ca6007611e8d565b905060008060005b83811015610a72573373ffffffffffffffffffffffffffffffffffffffff1660096000600184610a02919061375c565b815260200190815260200160002060020160009054906101000a900473ffffffffffffffffffffffffffffffffffffffff1673ffffffffffffffffffffffffffffffffffffffff1603610a5f57600181610a5c919061375c565b92505b8080610a6a90613790565b9150506109d2565b5060008267ffffffffffffffff811115610a8f57610a8e61323f565b5b604051908082528060200260200182016040528015610ac857816020015b610ab5612b8f565b815260200190600190039081610aad5790505b50905060005b84811015610c9d573373ffffffffffffffffffffffffffffffffffffffff1660096000600184610afe919061375c565b815260200190815260200160002060020160009054906101000a900473ffffffffffffffffffffffffffffffffffffffff1673ffffffffffffffffffffffffffffffffffffffff1603610c8a576000600182610b5a919061375c565b90506000600960008381526020019081526020016000209050806040518060a0016040529081600082015481526020016001820160009054906101000a900473ffffffffffffffffffffffffffffffffffffffff1673ffffffffffffffffffffffffffffffffffffffff1673ffffffffffffffffffffffffffffffffffffffff1681526020016002820160009054906101000a900473ffffffffffffffffffffffffffffffffffffffff1673ffffffffffffffffffffffffffffffffffffffff1673ffffffffffffffffffffffffffffffffffffffff168152602001600382015481526020016004820160009054906101000a900460ff161515151581525050848681518110610c6d57610c6c6137d8565b5b6020026020010181905250600185610c85919061375c565b945050505b8080610c9590613790565b915050610ace565b508094505050505090565b610cb9610cb3611a77565b82611e9b565b610cf8576040517f08c379a0000000000000000000000000000000000000000000000000000000008152600401610cef90613879565b60405180910390fd5b610d03838383611b94565b505050565b610d2383838360405180602001604052806000815250611552565b505050565b600080610d3483611f30565b9050600073ffffffffffffffffffffffffffffffffffffffff168173ffffffffffffffffffffffffffffffffffffffff1603610da5576040517f08c379a0000000000000000000000000000000000000000000000000000000008152600401610d9c906138e5565b60405180910390fd5b80915050919050565b60008073ffffffffffffffffffffffffffffffffffffffff168273ffffffffffffffffffffffffffffffffffffffff1603610e1e576040517f08c379a0000000000000000000000000000000000000000000000000000000008152600401610e1590613977565b60405180910390fd5b600360008373ffffffffffffffffffffffffffffffffffffffff1673ffffffffffffffffffffffffffffffffffffffff168152602001908152602001600020549050919050565b600a60009054906101000a900473ffffffffffffffffffffffffffffffffffffffff1673ffffffffffffffffffffffffffffffffffffffff163373ffffffffffffffffffffffffffffffffffffffff1614610ef5576040517f08c379a0000000000000000000000000000000000000000000000000000000008152600401610eec906139e3565b60405180910390fd5b80600b8190555050565b60606000610f0d6007611e8d565b905060008060005b83811015610fb5573373ffffffffffffffffffffffffffffffffffffffff1660096000600184610f45919061375c565b815260200190815260200160002060010160009054906101000a900473ffffffffffffffffffffffffffffffffffffffff1673ffffffffffffffffffffffffffffffffffffffff1603610fa257600181610f9f919061375c565b92505b8080610fad90613790565b915050610f15565b5060008267ffffffffffffffff811115610fd257610fd161323f565b5b60405190808252806020026020018201604052801561100b57816020015b610ff8612b8f565b815260200190600190039081610ff05790505b50905060005b848110156111e0573373ffffffffffffffffffffffffffffffffffffffff1660096000600184611041919061375c565b815260200190815260200160002060010160009054906101000a900473ffffffffffffffffffffffffffffffffffffffff1673ffffffffffffffffffffffffffffffffffffffff16036111cd57600060018261109d919061375c565b90506000600960008381526020019081526020016000209050806040518060a0016040529081600082015481526020016001820160009054906101000a900473ffffffffffffffffffffffffffffffffffffffff1673ffffffffffffffffffffffffffffffffffffffff1673ffffffffffffffffffffffffffffffffffffffff1681526020016002820160009054906101000a900473ffffffffffffffffffffffffffffffffffffffff1673ffffffffffffffffffffffffffffffffffffffff1673ffffffffffffffffffffffffffffffffffffffff168152602001600382015481526020016004820160009054906101000a900460ff1615151515815250508486815181106111b0576111af6137d8565b5b60200260200101819052506001856111c8919061375c565b945050505b80806111d890613790565b915050611011565b508094505050505090565b600060096000838152602001908152602001600020600301549050803414611248576040517f08c379a000000000000000000000000000000000000000000000000000000000815260040161123f90613a4f565b60405180910390fd5b336009600084815260200190815260200160002060020160006101000a81548173ffffffffffffffffffffffffffffffffffffffff021916908373ffffffffffffffffffffffffffffffffffffffff16021790555060016009600084815260200190815260200160002060040160006101000a81548160ff02191690831515021790555060006009600084815260200190815260200160002060020160006101000a81548173ffffffffffffffffffffffffffffffffffffffff021916908373ffffffffffffffffffffffffffffffffffffffff16021790555061132c6008611f6d565b611337303384611b94565b600a60009054906101000a900473ffffffffffffffffffffffffffffffffffffffff1673ffffffffffffffffffffffffffffffffffffffff166108fc600b549081150290604051600060405180830381858888f193505050501580156113a1573d6000803e3d6000fd5b506009600083815260200190815260200160002060010160009054906101000a900473ffffffffffffffffffffffffffffffffffffffff1673ffffffffffffffffffffffffffffffffffffffff166108fc349081150290604051600060405180830381858888f1935050505015801561141e573d6000803e3d6000fd5b505050565b6060600180546114329061345c565b80601f016020809104026020016040519081016040528092919081815260200182805461145e9061345c565b80156114ab5780601f10611480576101008083540402835291602001916114ab565b820191906000526020600020905b81548152906001019060200180831161148e57829003601f168201915b5050505050905090565b6114c76114c0611a77565b8383611f83565b5050565b60006114d76007611f6d565b60006114e36007611e8d565b90506114ef33826120ef565b61153d8186868080601f016020809104026020016040519081016040528093929190818152602001838380828437600081840152601f19601f8201169050808301925050505050505061230c565b6115478184612379565b809150509392505050565b61156361155d611a77565b83611e9b565b6115a2576040517f08c379a000000000000000000000000000000000000000000000000000000000815260040161159990613879565b60405180910390fd5b6115ae8484848461257c565b50505050565b60606115bf82611a2c565b60006006600084815260200190815260200160002080546115df9061345c565b80601f016020809104026020016040519081016040528092919081815260200182805461160b9061345c565b80156116585780601f1061162d57610100808354040283529160200191611658565b820191906000526020600020905b81548152906001019060200180831161163b57829003601f168201915b5050505050905060006116696125d8565b9050600081510361167e5781925050506116c1565b6000825111156116b357808260405160200161169b929190613aab565b604051602081830303815290604052925050506116c1565b6116bc846125ef565b925050505b919050565b606060006116d46007611e8d565b905060006116e26008611e8d565b6116ec6007611e8d565b6116f69190613acf565b90506000808267ffffffffffffffff8111156117155761171461323f565b5b60405190808252806020026020018201604052801561174e57816020015b61173b612b8f565b8152602001906001900390816117335790505b50905060005b84811015611923573073ffffffffffffffffffffffffffffffffffffffff1660096000600184611784919061375c565b815260200190815260200160002060020160009054906101000a900473ffffffffffffffffffffffffffffffffffffffff1673ffffffffffffffffffffffffffffffffffffffff16036119105760006001826117e0919061375c565b90506000600960008381526020019081526020016000209050806040518060a0016040529081600082015481526020016001820160009054906101000a900473ffffffffffffffffffffffffffffffffffffffff1673ffffffffffffffffffffffffffffffffffffffff1673ffffffffffffffffffffffffffffffffffffffff1681526020016002820160009054906101000a900473ffffffffffffffffffffffffffffffffffffffff1673ffffffffffffffffffffffffffffffffffffffff1673ffffffffffffffffffffffffffffffffffffffff168152602001600382015481526020016004820160009054906101000a900460ff1615151515815250508486815181106118f3576118f26137d8565b5b602002602001018190525060018561190b919061375c565b945050505b808061191b90613790565b915050611754565b508094505050505090565b6000600560008473ffffffffffffffffffffffffffffffffffffffff1673ffffffffffffffffffffffffffffffffffffffff16815260200190815260200160002060008373ffffffffffffffffffffffffffffffffffffffff1673ffffffffffffffffffffffffffffffffffffffff16815260200190815260200160002060009054906101000a900460ff16905092915050565b60007f01ffc9a7000000000000000000000000000000000000000000000000000000007bffffffffffffffffffffffffffffffffffffffffffffffffffffffff1916827bffffffffffffffffffffffffffffffffffffffffffffffffffffffff1916149050919050565b611a3581612657565b611a74576040517f08c379a0000000000000000000000000000000000000000000000000000000008152600401611a6b906138e5565b60405180910390fd5b50565b600033905090565b816004600083815260200190815260200160002060006101000a81548173ffffffffffffffffffffffffffffffffffffffff021916908373ffffffffffffffffffffffffffffffffffffffff160217905550808273ffffffffffffffffffffffffffffffffffffffff16611af283610d28565b73ffffffffffffffffffffffffffffffffffffffff167f8c5be1e5ebec7d5bd14f71427d1e84f3dd0314c0f7b2291e5b200ac8c7c3b92560405160405180910390a45050565b60008160000154905060008111611b84576040517f08c379a0000000000000000000000000000000000000000000000000000000008152600401611b7b90613b4f565b60405180910390fd5b6001810382600001819055505050565b8273ffffffffffffffffffffffffffffffffffffffff16611bb482610d28565b73ffffffffffffffffffffffffffffffffffffffff1614611c0a576040517f08c379a0000000000000000000000000000000000000000000000000000000008152600401611c0190613be1565b60405180910390fd5b600073ffffffffffffffffffffffffffffffffffffffff168273ffffffffffffffffffffffffffffffffffffffff1603611c79576040517f08c379a0000000000000000000000000000000000000000000000000000000008152600401611c7090613c73565b60405180910390fd5b611c868383836001612698565b8273ffffffffffffffffffffffffffffffffffffffff16611ca682610d28565b73ffffffffffffffffffffffffffffffffffffffff1614611cfc576040517f08c379a0000000000000000000000000000000000000000000000000000000008152600401611cf390613be1565b60405180910390fd5b6004600082815260200190815260200160002060006101000a81549073ffffffffffffffffffffffffffffffffffffffff02191690556001600360008573ffffffffffffffffffffffffffffffffffffffff1673ffffffffffffffffffffffffffffffffffffffff168152602001908152602001600020600082825403925050819055506001600360008473ffffffffffffffffffffffffffffffffffffffff1673ffffffffffffffffffffffffffffffffffffffff16815260200190815260200160002060008282540192505081905550816002600083815260200190815260200160002060006101000a81548173ffffffffffffffffffffffffffffffffffffffff021916908373ffffffffffffffffffffffffffffffffffffffff160217905550808273ffffffffffffffffffffffffffffffffffffffff168473ffffffffffffffffffffffffffffffffffffffff167fddf252ad1be2c89b69c2b068fc378daa952ba7f163c4a11628f55a4df523b3ef60405160405180910390a4611e8883838360016127be565b505050565b600081600001549050919050565b600080611ea783610d28565b90508073ffffffffffffffffffffffffffffffffffffffff168473ffffffffffffffffffffffffffffffffffffffff161480611ee95750611ee8818561192e565b5b80611f2757508373ffffffffffffffffffffffffffffffffffffffff16611f0f84610664565b73ffffffffffffffffffffffffffffffffffffffff16145b91505092915050565b60006002600083815260200190815260200160002060009054906101000a900473ffffffffffffffffffffffffffffffffffffffff169050919050565b6001816000016000828254019250508190555050565b8173ffffffffffffffffffffffffffffffffffffffff168373ffffffffffffffffffffffffffffffffffffffff1603611ff1576040517f08c379a0000000000000000000000000000000000000000000000000000000008152600401611fe890613cdf565b60405180910390fd5b80600560008573ffffffffffffffffffffffffffffffffffffffff1673ffffffffffffffffffffffffffffffffffffffff16815260200190815260200160002060008473ffffffffffffffffffffffffffffffffffffffff1673ffffffffffffffffffffffffffffffffffffffff16815260200190815260200160002060006101000a81548160ff0219169083151502179055508173ffffffffffffffffffffffffffffffffffffffff168373ffffffffffffffffffffffffffffffffffffffff167f17307eab39ab6107e8899845ad3d59bd9653f200f220920489ca2b5937696c31836040516120e29190612ca0565b60405180910390a3505050565b600073ffffffffffffffffffffffffffffffffffffffff168273ffffffffffffffffffffffffffffffffffffffff160361215e576040517f08c379a000000000000000000000000000000000000000000000000000000000815260040161215590613d4b565b60405180910390fd5b61216781612657565b156121a7576040517f08c379a000000000000000000000000000000000000000000000000000000000815260040161219e90613db7565b60405180910390fd5b6121b5600083836001612698565b6121be81612657565b156121fe576040517f08c379a00000000000000000000000000000000000000000000000000000000081526004016121f590613db7565b60405180910390fd5b6001600360008473ffffffffffffffffffffffffffffffffffffffff1673ffffffffffffffffffffffffffffffffffffffff16815260200190815260200160002060008282540192505081905550816002600083815260200190815260200160002060006101000a81548173ffffffffffffffffffffffffffffffffffffffff021916908373ffffffffffffffffffffffffffffffffffffffff160217905550808273ffffffffffffffffffffffffffffffffffffffff16600073ffffffffffffffffffffffffffffffffffffffff167fddf252ad1be2c89b69c2b068fc378daa952ba7f163c4a11628f55a4df523b3ef60405160405180910390a46123086000838360016127be565b5050565b61231582612657565b612354576040517f08c379a000000000000000000000000000000000000000000000000000000000815260040161234b90613e49565b60405180910390fd5b80600660008481526020019081526020016000209081612374919061400b565b505050565b600b5434146123bd576040517f08c379a00000000000000000000000000000000000000000000000000000000081526004016123b4906135fd565b60405180910390fd5b60008114612400576040517f08c379a00000000000000000000000000000000000000000000000000000000081526004016123f790614129565b60405180910390fd5b6040518060a001604052808381526020013373ffffffffffffffffffffffffffffffffffffffff1681526020013073ffffffffffffffffffffffffffffffffffffffff16815260200182815260200160001515815250600960008481526020019081526020016000206000820151816000015560208201518160010160006101000a81548173ffffffffffffffffffffffffffffffffffffffff021916908373ffffffffffffffffffffffffffffffffffffffff16021790555060408201518160020160006101000a81548173ffffffffffffffffffffffffffffffffffffffff021916908373ffffffffffffffffffffffffffffffffffffffff1602179055506060820151816003015560808201518160040160006101000a81548160ff021916908315150217905550905050612539333084611b94565b817f148543af2976a27506276ef8982c517ba8afb96f5f1df32646f5307fbcac4410333084600060405161257094939291906136e8565b60405180910390a25050565b612587848484611b94565b612593848484846127c4565b6125d2576040517f08c379a00000000000000000000000000000000000000000000000000000000081526004016125c9906141bb565b60405180910390fd5b50505050565b606060405180602001604052806000815250905090565b60606125fa82611a2c565b60006126046125d8565b90506000815111612624576040518060200160405280600081525061264f565b8061262e8461294b565b60405160200161263f929190613aab565b6040516020818303038152906040525b915050919050565b60008073ffffffffffffffffffffffffffffffffffffffff1661267983611f30565b73ffffffffffffffffffffffffffffffffffffffff1614159050919050565b60018111156127b857600073ffffffffffffffffffffffffffffffffffffffff168473ffffffffffffffffffffffffffffffffffffffff161461272c5780600360008673ffffffffffffffffffffffffffffffffffffffff1673ffffffffffffffffffffffffffffffffffffffff16815260200190815260200160002060008282546127249190613acf565b925050819055505b600073ffffffffffffffffffffffffffffffffffffffff168373ffffffffffffffffffffffffffffffffffffffff16146127b75780600360008573ffffffffffffffffffffffffffffffffffffffff1673ffffffffffffffffffffffffffffffffffffffff16815260200190815260200160002060008282546127af919061375c565b925050819055505b5b50505050565b50505050565b60006127e58473ffffffffffffffffffffffffffffffffffffffff16612a19565b1561293e578373ffffffffffffffffffffffffffffffffffffffff1663150b7a0261280e611a77565b8786866040518563ffffffff1660e01b81526004016128309493929190614230565b6020604051808303816000875af192505050801561286c57506040513d601f19601f820116820180604052508101906128699190614291565b60015b6128ee573d806000811461289c576040519150601f19603f3d011682016040523d82523d6000602084013e6128a1565b606091505b5060008151036128e6576040517f08c379a00000000000000000000000000000000000000000000000000000000081526004016128dd906141bb565b60405180910390fd5b805181602001fd5b63150b7a0260e01b7bffffffffffffffffffffffffffffffffffffffffffffffffffffffff1916817bffffffffffffffffffffffffffffffffffffffffffffffffffffffff191614915050612943565b600190505b949350505050565b60606000600161295a84612a3c565b01905060008167ffffffffffffffff8111156129795761297861323f565b5b6040519080825280601f01601f1916602001820160405280156129ab5781602001600182028036833780820191505090505b509050600082602001820190505b600115612a0e578080600190039150507f3031323334353637383961626364656600000000000000000000000000000000600a86061a8153600a8581612a0257612a016142be565b5b049450600085036129b9575b819350505050919050565b6000808273ffffffffffffffffffffffffffffffffffffffff163b119050919050565b600080600090507a184f03e93ff9f4daa797ed6e38ed64bf6a1f0100000000000000008310612a9a577a184f03e93ff9f4daa797ed6e38ed64bf6a1f0100000000000000008381612a9057612a8f6142be565b5b0492506040810190505b6d04ee2d6d415b85acef81000000008310612ad7576d04ee2d6d415b85acef81000000008381612acd57612acc6142be565b5b0492506020810190505b662386f26fc100008310612b0657662386f26fc100008381612afc57612afb6142be565b5b0492506010810190505b6305f5e1008310612b2f576305f5e1008381612b2557612b246142be565b5b0492506008810190505b6127108310612b54576127108381612b4a57612b496142be565b5b0492506004810190505b60648310612b775760648381612b6d57612b6c6142be565b5b0492506002810190505b600a8310612b86576001810190505b80915050919050565b6040518060a0016040528060008152602001600073ffffffffffffffffffffffffffffffffffffffff168152602001600073ffffffffffffffffffffffffffffffffffffffff168152602001600081526020016000151581525090565b6000604051905090565b600080fd5b600080fd5b60007fffffffff0000000000000000000000000000000000000000000000000000000082169050919050565b612c3581612c00565b8114612c4057600080fd5b50565b600081359050612c5281612c2c565b92915050565b600060208284031215612c6e57612c6d612bf6565b5b6000612c7c84828501612c43565b91505092915050565b60008115159050919050565b612c9a81612c85565b82525050565b6000602082019050612cb56000830184612c91565b92915050565b600081519050919050565b600082825260208201905092915050565b60005b83811015612cf5578082015181840152602081019050612cda565b60008484015250505050565b6000601f19601f8301169050919050565b6000612d1d82612cbb565b612d278185612cc6565b9350612d37818560208601612cd7565b612d4081612d01565b840191505092915050565b60006020820190508181036000830152612d658184612d12565b905092915050565b6000819050919050565b612d8081612d6d565b8114612d8b57600080fd5b50565b600081359050612d9d81612d77565b92915050565b600060208284031215612db957612db8612bf6565b5b6000612dc784828501612d8e565b91505092915050565b600073ffffffffffffffffffffffffffffffffffffffff82169050919050565b6000612dfb82612dd0565b9050919050565b612e0b81612df0565b82525050565b6000602082019050612e266000830184612e02565b92915050565b612e3581612df0565b8114612e4057600080fd5b50565b600081359050612e5281612e2c565b92915050565b60008060408385031215612e6f57612e6e612bf6565b5b6000612e7d85828601612e43565b9250506020612e8e85828601612d8e565b9150509250929050565b612ea181612d6d565b82525050565b6000602082019050612ebc6000830184612e98565b92915050565b60008060408385031215612ed957612ed8612bf6565b5b6000612ee785828601612d8e565b9250506020612ef885828601612d8e565b9150509250929050565b600081519050919050565b600082825260208201905092915050565b6000819050602082019050919050565b612f3781612d6d565b82525050565b6000612f4882612dd0565b9050919050565b612f5881612f3d565b82525050565b612f6781612df0565b82525050565b612f7681612c85565b82525050565b60a082016000820151612f926000850182612f2e565b506020820151612fa56020850182612f4f565b506040820151612fb86040850182612f5e565b506060820151612fcb6060850182612f2e565b506080820151612fde6080850182612f6d565b50505050565b6000612ff08383612f7c565b60a08301905092915050565b6000602082019050919050565b600061301482612f02565b61301e8185612f0d565b935061302983612f1e565b8060005b8381101561305a5781516130418882612fe4565b975061304c83612ffc565b92505060018101905061302d565b5085935050505092915050565b600060208201905081810360008301526130818184613009565b905092915050565b6000806000606084860312156130a2576130a1612bf6565b5b60006130b086828701612e43565b93505060206130c186828701612e43565b92505060406130d286828701612d8e565b9150509250925092565b6000602082840312156130f2576130f1612bf6565b5b600061310084828501612e43565b91505092915050565b61311281612c85565b811461311d57600080fd5b50565b60008135905061312f81613109565b92915050565b6000806040838503121561314c5761314b612bf6565b5b600061315a85828601612e43565b925050602061316b85828601613120565b9150509250929050565b600080fd5b600080fd5b600080fd5b60008083601f84011261319a57613199613175565b5b8235905067ffffffffffffffff8111156131b7576131b661317a565b5b6020830191508360018202830111156131d3576131d261317f565b5b9250929050565b6000806000604084860312156131f3576131f2612bf6565b5b600084013567ffffffffffffffff81111561321157613210612bfb565b5b61321d86828701613184565b9350935050602061323086828701612d8e565b9150509250925092565b600080fd5b7f4e487b7100000000000000000000000000000000000000000000000000000000600052604160045260246000fd5b61327782612d01565b810181811067ffffffffffffffff821117156132965761329561323f565b5b80604052505050565b60006132a9612bec565b90506132b5828261326e565b919050565b600067ffffffffffffffff8211156132d5576132d461323f565b5b6132de82612d01565b9050602081019050919050565b82818337600083830152505050565b600061330d613308846132ba565b61329f565b9050828152602081018484840111156133295761332861323a565b5b6133348482856132eb565b509392505050565b600082601f83011261335157613350613175565b5b81356133618482602086016132fa565b91505092915050565b6000806000806080858703121561338457613383612bf6565b5b600061339287828801612e43565b94505060206133a387828801612e43565b93505060406133b487828801612d8e565b925050606085013567ffffffffffffffff8111156133d5576133d4612bfb565b5b6133e18782880161333c565b91505092959194509250565b6000806040838503121561340457613403612bf6565b5b600061341285828601612e43565b925050602061342385828601612e43565b9150509250929050565b7f4e487b7100000000000000000000000000000000000000000000000000000000600052602260045260246000fd5b6000600282049050600182168061347457607f821691505b6020821081036134875761348661342d565b5b50919050565b7f4552433732313a20617070726f76616c20746f2063757272656e74206f776e6560008201527f7200000000000000000000000000000000000000000000000000000000000000602082015250565b60006134e9602183612cc6565b91506134f48261348d565b604082019050919050565b60006020820190508181036000830152613518816134dc565b9050919050565b7f4552433732313a20617070726f76652063616c6c6572206973206e6f7420746f60008201527f6b656e206f776e6572206f7220617070726f76656420666f7220616c6c000000602082015250565b600061357b603d83612cc6565b91506135868261351f565b604082019050919050565b600060208201905081810360008301526135aa8161356e565b9050919050565b7f5072696365206d757374206265206c697374696e672070726963650000000000600082015250565b60006135e7601b83612cc6565b91506135f2826135b1565b602082019050919050565b60006020820190508181036000830152613616816135da565b9050919050565b7f596f75206d75737420626520746865206f776e6572206f6620746865206e6674600082015250565b6000613653602083612cc6565b915061365e8261361d565b602082019050919050565b6000602082019050818103600083015261368281613646565b9050919050565b6000819050919050565b60006136ae6136a96136a484612dd0565b613689565b612dd0565b9050919050565b60006136c082613693565b9050919050565b60006136d2826136b5565b9050919050565b6136e2816136c7565b82525050565b60006080820190506136fd60008301876136d9565b61370a60208301866136d9565b6137176040830185612e98565b6137246060830184612c91565b95945050505050565b7f4e487b7100000000000000000000000000000000000000000000000000000000600052601160045260246000fd5b600061376782612d6d565b915061377283612d6d565b925082820190508082111561378a5761378961372d565b5b92915050565b600061379b82612d6d565b91507fffffffffffffffffffffffffffffffffffffffffffffffffffffffffffffffff82036137cd576137cc61372d565b5b600182019050919050565b7f4e487b7100000000000000000000000000000000000000000000000000000000600052603260045260246000fd5b7f4552433732313a2063616c6c6572206973206e6f7420746f6b656e206f776e6560008201527f72206f7220617070726f76656400000000000000000000000000000000000000602082015250565b6000613863602d83612cc6565b915061386e82613807565b604082019050919050565b6000602082019050818103600083015261389281613856565b9050919050565b7f4552433732313a20696e76616c696420746f6b656e2049440000000000000000600082015250565b60006138cf601883612cc6565b91506138da82613899565b602082019050919050565b600060208201905081810360008301526138fe816138c2565b9050919050565b7f4552433732313a2061646472657373207a65726f206973206e6f74206120766160008201527f6c6964206f776e65720000000000000000000000000000000000000000000000602082015250565b6000613961602983612cc6565b915061396c82613905565b604082019050919050565b6000602082019050818103600083015261399081613954565b9050919050565b7f4f6e6c79206f776e65722063616e206163636573732069740000000000000000600082015250565b60006139cd601883612cc6565b91506139d882613997565b602082019050919050565b600060208201905081810360008301526139fc816139c0565b9050919050565b7f506c6561736520636865636b2074686520707269636520616d6f756e74000000600082015250565b6000613a39601d83612cc6565b9150613a4482613a03565b602082019050919050565b60006020820190508181036000830152613a6881613a2c565b9050919050565b600081905092915050565b6000613a8582612cbb565b613a8f8185613a6f565b9350613a9f818560208601612cd7565b80840191505092915050565b6000613ab78285613a7a565b9150613ac38284613a7a565b91508190509392505050565b6000613ada82612d6d565b9150613ae583612d6d565b9250828203905081811115613afd57613afc61372d565b5b92915050565b7f436f756e7465723a2064656372656d656e74206f766572666c6f770000000000600082015250565b6000613b39601b83612cc6565b9150613b4482613b03565b602082019050919050565b60006020820190508181036000830152613b6881613b2c565b9050919050565b7f4552433732313a207472616e736665722066726f6d20696e636f72726563742060008201527f6f776e6572000000000000000000000000000000000000000000000000000000602082015250565b6000613bcb602583612cc6565b9150613bd682613b6f565b604082019050919050565b60006020820190508181036000830152613bfa81613bbe565b9050919050565b7f4552433732313a207472616e7366657220746f20746865207a65726f2061646460008201527f7265737300000000000000000000000000000000000000000000000000000000602082015250565b6000613c5d602483612cc6565b9150613c6882613c01565b604082019050919050565b60006020820190508181036000830152613c8c81613c50565b9050919050565b7f4552433732313a20617070726f766520746f2063616c6c657200000000000000600082015250565b6000613cc9601983612cc6565b9150613cd482613c93565b602082019050919050565b60006020820190508181036000830152613cf881613cbc565b9050919050565b7f4552433732313a206d696e7420746f20746865207a65726f2061646472657373600082015250565b6000613d35602083612cc6565b9150613d4082613cff565b602082019050919050565b60006020820190508181036000830152613d6481613d28565b9050919050565b7f4552433732313a20746f6b656e20616c7265616479206d696e74656400000000600082015250565b6000613da1601c83612cc6565b9150613dac82613d6b565b602082019050919050565b60006020820190508181036000830152613dd081613d94565b9050919050565b7f45524337323155524953746f726167653a2055524920736574206f66206e6f6e60008201527f6578697374656e7420746f6b656e000000000000000000000000000000000000602082015250565b6000613e33602e83612cc6565b9150613e3e82613dd7565b604082019050919050565b60006020820190508181036000830152613e6281613e26565b9050919050565b60008190508160005260206000209050919050565b60006020601f8301049050919050565b600082821b905092915050565b600060088302613ecb7fffffffffffffffffffffffffffffffffffffffffffffffffffffffffffffffff82613e8e565b613ed58683613e8e565b95508019841693508086168417925050509392505050565b6000613f08613f03613efe84612d6d565b613689565b612d6d565b9050919050565b6000819050919050565b613f2283613eed565b613f36613f2e82613f0f565b848454613e9b565b825550505050565b600090565b613f4b613f3e565b613f56818484613f19565b505050565b5b81811015613f7a57613f6f600082613f43565b600181019050613f5c565b5050565b601f821115613fbf57613f9081613e69565b613f9984613e7e565b81016020851015613fa8578190505b613fbc613fb485613e7e565b830182613f5b565b50505b505050565b600082821c905092915050565b6000613fe260001984600802613fc4565b1980831691505092915050565b6000613ffb8383613fd1565b9150826002028217905092915050565b61401482612cbb565b67ffffffffffffffff81111561402d5761402c61323f565b5b614037825461345c565b614042828285613f7e565b600060209050601f8311600181146140755760008415614063578287015190505b61406d8582613fef565b8655506140d5565b601f19841661408386613e69565b60005b828110156140ab57848901518255600182019150602085019450602081019050614086565b868310156140c857848901516140c4601f891682613fd1565b8355505b6001600288020188555050505b505050505050565b7f5072696365207265717569726564000000000000000000000000000000000000600082015250565b6000614113600e83612cc6565b915061411e826140dd565b602082019050919050565b6000602082019050818103600083015261414281614106565b9050919050565b7f4552433732313a207472616e7366657220746f206e6f6e20455243373231526560008201527f63656976657220696d706c656d656e7465720000000000000000000000000000602082015250565b60006141a5603283612cc6565b91506141b082614149565b604082019050919050565b600060208201905081810360008301526141d481614198565b9050919050565b600081519050919050565b600082825260208201905092915050565b6000614202826141db565b61420c81856141e6565b935061421c818560208601612cd7565b61422581612d01565b840191505092915050565b60006080820190506142456000830187612e02565b6142526020830186612e02565b61425f6040830185612e98565b818103606083015261427181846141f7565b905095945050505050565b60008151905061428b81612c2c565b92915050565b6000602082840312156142a7576142a6612bf6565b5b60006142b58482850161427c565b91505092915050565b7f4e487b7100000000000000000000000000000000000000000000000000000000600052601260045260246000fdfea2646970667358221220230e1d00ecc8ae3702a582c500272abee8abc2f39712e2ff746074cb0766ccb664736f6c63430008110033",
  "linkReferences": {},
  "deployedLinkReferences": {}
}