{
  "_format": "hh-sol-artifact-1",
  "contractName": "ASE",
  "sourceName": "contracts/Lock.sol",
  "abi": [
    {
      "inputs": [],
      "stateMutability": "nonpayable",
      "type": "constructor"
    },
    {
      "anonymous": false,
      "inputs": [
        {
          "indexed": true,
          "internalType": "address",
          "name": "owner",
          "type": "address"
        },
        {
          "indexed": true,
          "internalType": "address",
          "name": "approved",
          "type": "address"
        },
        {
          "indexed": true,
          "internalType": "uint256",
          "name": "tokenId",
          "type": "uint256"
        }
      ],
      "name": "Approval",
      "type": "event"
    },
    {
      "anonymous": false,
      "inputs": [
        {
          "indexed": true,
          "internalType": "address",
          "name": "owner",
          "type": "address"
        },
        {
          "indexed": true,
          "internalType": "address",
          "name": "operator",
          "type": "address"
        },
        {
          "indexed": false,
          "internalType": "bool",
          "name": "approved",
          "type": "bool"
        }
      ],
      "name": "ApprovalForAll",
      "type": "event"
    },
    {
      "anonymous": false,
      "inputs": [
        {
          "indexed": true,
          "internalType": "address",
          "name": "from",
          "type": "address"
        },
        {
          "indexed": true,
          "internalType": "address",
          "name": "to",
          "type": "address"
        },
        {
          "indexed": true,
          "internalType": "uint256",
          "name": "tokenId",
          "type": "uint256"
        }
      ],
      "name": "Transfer",
      "type": "event"
    },
    {
      "anonymous": false,
      "inputs": [
        {
          "indexed": true,
          "internalType": "uint256",
          "name": "tokenid",
          "type": "uint256"
        },
        {
          "indexed": false,
          "internalType": "address",
          "name": "sender",
          "type": "address"
        },
        {
          "indexed": false,
          "internalType": "address",
          "name": "owner",
          "type": "address"
        },
        {
          "indexed": false,
          "internalType": "uint256",
          "name": "price",
          "type": "uint256"
        },
        {
          "indexed": false,
          "internalType": "bool",
          "name": "issold",
          "type": "bool"
        }
      ],
      "name": "infoMarketitem",
      "type": "event"
    },
    {
      "inputs": [
        {
          "internalType": "string",
          "name": "tokenuri",
          "type": "string"
        },
        {
          "internalType": "uint256",
          "name": "amount",
          "type": "uint256"
        }
      ],
      "name": "Createnft",
      "outputs": [
        {
          "internalType": "uint256",
          "name": "",
          "type": "uint256"
        }
      ],
      "stateMutability": "payable",
      "type": "function"
    },
    {
      "inputs": [
        {
          "internalType": "address",
          "name": "to",
          "type": "address"
        },
        {
          "internalType": "uint256",
          "name": "tokenId",
          "type": "uint256"
        }
      ],
      "name": "approve",
      "outputs": [],
      "stateMutability": "nonpayable",
      "type": "function"
    },
    {
      "inputs": [
        {
          "internalType": "address",
          "name": "owner",
          "type": "address"
        }
      ],
      "name": "balanceOf",
      "outputs": [
        {
          "internalType": "uint256",
          "name": "",
          "type": "uint256"
        }
      ],
      "stateMutability": "view",
      "type": "function"
    },
    {
      "inputs": [],
      "name": "fetchnft",
      "outputs": [
        {
          "components": [
            {
              "internalType": "uint256",
              "name": "tokenid",
              "type": "uint256"
            },
            {
              "internalType": "address payable",
              "name": "seller",
              "type": "address"
            },
            {
              "internalType": "address",
              "name": "owner",
              "type": "address"
            },
            {
              "internalType": "uint256",
              "name": "price",
              "type": "uint256"
            },
            {
              "internalType": "bool",
              "name": "issold",
              "type": "bool"
            }
          ],
          "internalType": "struct ASE.Marketitems[]",
          "name": "",
          "type": "tuple[]"
        }
      ],
      "stateMutability": "view",
      "type": "function"
    },
    {
      "inputs": [
        {
          "internalType": "uint256",
          "name": "tokenId",
          "type": "uint256"
        }
      ],
      "name": "getApproved",
      "outputs": [
        {
          "internalType": "address",
          "name": "",
          "type": "address"
        }
      ],
      "stateMutability": "view",
      "type": "function"
    },
    {
      "inputs": [],
      "name": "getListingPrice",
      "outputs": [
        {
          "internalType": "uint256",
          "name": "",
          "type": "uint256"
        }
      ],
      "stateMutability": "view",
      "type": "function"
    },
    {
      "inputs": [
        {
          "internalType": "address",
          "name": "owner",
          "type": "address"
        },
        {
          "internalType": "address",
          "name": "operator",
          "type": "address"
        }
      ],
      "name": "isApprovedForAll",
      "outputs": [
        {
          "internalType": "bool",
          "name": "",
          "type": "bool"
        }
      ],
      "stateMutability": "view",
      "type": "function"
    },
    {
      "inputs": [],
      "name": "name",
      "outputs": [
        {
          "internalType": "string",
          "name": "",
          "type": "string"
        }
      ],
      "stateMutability": "view",
      "type": "function"
    },
    {
      "inputs": [
        {
          "internalType": "uint256",
          "name": "tokenId",
          "type": "uint256"
        }
      ],
      "name": "ownerOf",
      "outputs": [
        {
          "internalType": "address",
          "name": "",
          "type": "address"
        }
      ],
      "stateMutability": "view",
      "type": "function"
    },
    {
      "inputs": [
        {
          "internalType": "uint256",
          "name": "tokenid",
          "type": "uint256"
        },
        {
          "internalType": "uint256",
          "name": "amount",
          "type": "uint256"
        }
      ],
      "name": "resellnft",
      "outputs": [],
      "stateMutability": "payable",
      "type": "function"
    },
    {
      "inputs": [
        {
          "internalType": "address",
          "name": "from",
          "type": "address"
        },
        {
          "internalType": "address",
          "name": "to",
          "type": "address"
        },
        {
          "internalType": "uint256",
          "name": "tokenId",
          "type": "uint256"
        }
      ],
      "name": "safeTransferFrom",
      "outputs": [],
      "stateMutability": "nonpayable",
      "type": "function"
    },
    {
      "inputs": [
        {
          "internalType": "address",
          "name": "from",
          "type": "address"
        },
        {
          "internalType": "address",
          "name": "to",
          "type": "address"
        },
        {
          "internalType": "uint256",
          "name": "tokenId",
          "type": "uint256"
        },
        {
          "internalType": "bytes",
          "name": "data",
          "type": "bytes"
        }
      ],
      "name": "safeTransferFrom",
      "outputs": [],
      "stateMutability": "nonpayable",
      "type": "function"
    },
    {
      "inputs": [
        {
          "internalType": "uint256",
          "name": "tokenid",
          "type": "uint256"
        }
      ],
      "name": "salenft",
      "outputs": [],
      "stateMutability": "payable",
      "type": "function"
    },
    {
      "inputs": [],
      "name": "saleout",
      "outputs": [
        {
          "components": [
            {
              "internalType": "uint256",
              "name": "tokenid",
              "type": "uint256"
            },
            {
              "internalType": "address payable",
              "name": "seller",
              "type": "address"
            },
            {
              "internalType": "address",
              "name": "owner",
              "type": "address"
            },
            {
              "internalType": "uint256",
              "name": "price",
              "type": "uint256"
            },
            {
              "internalType": "bool",
              "name": "issold",
              "type": "bool"
            }
          ],
          "internalType": "struct ASE.Marketitems[]",
          "name": "",
          "type": "tuple[]"
        }
      ],
      "stateMutability": "view",
      "type": "function"
    },
    {
      "inputs": [
        {
          "internalType": "address",
          "name": "operator",
          "type": "address"
        },
        {
          "internalType": "bool",
          "name": "approved",
          "type": "bool"
        }
      ],
      "name": "setApprovalForAll",
      "outputs": [],
      "stateMutability": "nonpayable",
      "type": "function"
    },
    {
      "inputs": [
        {
          "internalType": "bytes4",
          "name": "interfaceId",
          "type": "bytes4"
        }
      ],
      "name": "supportsInterface",
      "outputs": [
        {
          "internalType": "bool",
          "name": "",
          "type": "bool"
        }
      ],
      "stateMutability": "view",
      "type": "function"
    },
    {
      "inputs": [],
      "name": "symbol",
      "outputs": [
        {
          "internalType": "string",
          "name": "",
          "type": "string"
        }
      ],
      "stateMutability": "view",
      "type": "function"
    },
    {
      "inputs": [
        {
          "internalType": "uint256",
          "name": "tokenId",
          "type": "uint256"
        }
      ],
      "name": "tokenURI",
      "outputs": [
        {
          "internalType": "string",
          "name": "",
          "type": "string"
        }
      ],
      "stateMutability": "view",
      "type": "function"
    },
    {
      "inputs": [
        {
          "internalType": "address",
          "name": "from",
          "type": "address"
        },
        {
          "internalType": "address",
          "name": "to",
          "type": "address"
        },
        {
          "internalType": "uint256",
          "name": "tokenId",
          "type": "uint256"
        }
      ],
      "name": "transferFrom",
      "outputs": [],
      "stateMutability": "nonpayable",
      "type": "function"
    },
    {
      "inputs": [],
      "name": "unsoldnft",
      "outputs": [
        {
          "components": [
            {
              "internalType": "uint256",
              "name": "tokenid",
              "type": "uint256"
            },
            {
              "internalType": "address payable",
              "name": "seller",
              "type": "address"
            },
            {
              "internalType": "address",
              "name": "owner",
              "type": "address"
            },
            {
              "internalType": "uint256",
              "name": "price",
              "type": "uint256"
            },
            {
              "internalType": "bool",
              "name": "issold",
              "type": "bool"
            }
          ],
          "internalType": "struct ASE.Marketitems[]",
          "name": "",
          "type": "tuple[]"
        }
      ],
      "stateMutability": "view",
      "type": "function"
    },
    {
      "inputs": [
        {
          "internalType": "uint256",
          "name": "_listingprice",
          "type": "uint256"
        }
      ],
      "name": "updatelisting",
      "outputs": [],
      "stateMutability": "payable",
      "type": "function"
    }
  ],
  "bytecode": "0x60806040526608e1bc9bf04000600b553480156200001c57600080fd5b506040518060400160405280600781526020017f4e4654424f4154000000000000000000000000000000000000000000000000008152506040518060400160405280600381526020017f4e4642000000000000000000000000000000000000000000000000000000000081525081600090816200009a919062000370565b508060019081620000ac919062000370565b50505033600a60006101000a81548173ffffffffffffffffffffffffffffffffffffffff021916908373ffffffffffffffffffffffffffffffffffffffff16021790555062000457565b600081519050919050565b7f4e487b7100000000000000000000000000000000000000000000000000000000600052604160045260246000fd5b7f4e487b7100000000000000000000000000000000000000000000000000000000600052602260045260246000fd5b600060028204905060018216806200017857607f821691505b6020821081036200018e576200018d62000130565b5b50919050565b60008190508160005260206000209050919050565b60006020601f8301049050919050565b600082821b905092915050565b600060088302620001f87fffffffffffffffffffffffffffffffffffffffffffffffffffffffffffffffff82620001b9565b620002048683620001b9565b95508019841693508086168417925050509392505050565b6000819050919050565b6000819050919050565b6000620002516200024b62000245846200021c565b62000226565b6200021c565b9050919050565b6000819050919050565b6200026d8362000230565b620002856200027c8262000258565b848454620001c6565b825550505050565b600090565b6200029c6200028d565b620002a981848462000262565b505050565b5b81811015620002d157620002c560008262000292565b600181019050620002af565b5050565b601f8211156200032057620002ea8162000194565b620002f584620001a9565b8101602085101562000305578190505b6200031d6200031485620001a9565b830182620002ae565b50505b505050565b600082821c905092915050565b6000620003456000198460080262000325565b1980831691505092915050565b600062000360838362000332565b9150826002028217905092915050565b6200037b82620000f6565b67ffffffffffffffff81111562000397576200039662000101565b5b620003a382546200015f565b620003b0828285620002d5565b600060209050601f831160018114620003e85760008415620003d3578287015190505b620003df858262000352565b8655506200044f565b601f198416620003f88662000194565b60005b828110156200042257848901518255600182019150602085019450602081019050620003fb565b868310156200044257848901516200043e601f89168262000332565b8355505b6001600288020188555050505b505050505050565b6143f080620004676000396000f3fe60806040526004361061012a5760003560e01c806370a08231116100ab578063a22cb4651161006f578063a22cb465146103c9578063a9285e2d146103f2578063b88d4fde14610422578063c87b56dd1461044b578063ce27a93114610488578063e985e9c5146104b35761012a565b806370a08231146102fe57806373702f781461033b5780637de9ebb3146103575780638762ba4d1461038257806395d89b411461039e5761012a565b80631aec3af4116100f25780631aec3af414610228578063222162001461024457806323b872dd1461026f57806342842e0e146102985780636352211e146102c15761012a565b806301ffc9a71461012f57806306fdde031461016c578063081812fc14610197578063095ea7b3146101d457806312e85585146101fd575b600080fd5b34801561013b57600080fd5b5061015660048036038101906101519190612d25565b6104f0565b6040516101639190612d6d565b60405180910390f35b34801561017857600080fd5b506101816105d2565b60405161018e9190612e18565b60405180910390f35b3480156101a357600080fd5b506101be60048036038101906101b99190612e70565b610664565b6040516101cb9190612ede565b60405180910390f35b3480156101e057600080fd5b506101fb60048036038101906101f69190612f25565b6106aa565b005b34801561020957600080fd5b506102126107c1565b60405161021f9190612f74565b60405180910390f35b610242600480360381019061023d9190612f8f565b6107d6565b005b34801561025057600080fd5b506102596109c7565b6040516102669190613134565b60405180910390f35b34801561027b57600080fd5b5061029660048036038101906102919190613156565b610cb3565b005b3480156102a457600080fd5b506102bf60048036038101906102ba9190613156565b610d13565b005b3480156102cd57600080fd5b506102e860048036038101906102e39190612e70565b610d33565b6040516102f59190612ede565b60405180910390f35b34801561030a57600080fd5b50610325600480360381019061032091906131a9565b610db9565b6040516103329190612f74565b60405180910390f35b61035560048036038101906103509190612e70565b610e70565b005b34801561036357600080fd5b5061036c610f0a565b6040516103799190613134565b60405180910390f35b61039c60048036038101906103979190612e70565b6111f6565b005b3480156103aa57600080fd5b506103b361142e565b6040516103c09190612e18565b60405180910390f35b3480156103d557600080fd5b506103f060048036038101906103eb9190613202565b6114c0565b005b61040c600480360381019061040791906132a7565b6114d6565b6040516104199190612f74565b60405180910390f35b34801561042e57600080fd5b5061044960048036038101906104449190613437565b61155d565b005b34801561045757600080fd5b50610472600480360381019061046d9190612e70565b6115bf565b60405161047f9190612e18565b60405180910390f35b34801561049457600080fd5b5061049d6116d1565b6040516104aa9190613134565b60405180910390f35b3480156104bf57600080fd5b506104da60048036038101906104d591906134ba565b611939565b6040516104e79190612d6d565b60405180910390f35b60007f80ac58cd000000000000000000000000000000000000000000000000000000007bffffffffffffffffffffffffffffffffffffffffffffffffffffffff1916827bffffffffffffffffffffffffffffffffffffffffffffffffffffffff191614806105bb57507f5b5e139f000000000000000000000000000000000000000000000000000000007bffffffffffffffffffffffffffffffffffffffffffffffffffffffff1916827bffffffffffffffffffffffffffffffffffffffffffffffffffffffff1916145b806105cb57506105ca826119cd565b5b9050919050565b6060600080546105e190613529565b80601f016020809104026020016040519081016040528092919081815260200182805461060d90613529565b801561065a5780601f1061062f5761010080835404028352916020019161065a565b820191906000526020600020905b81548152906001019060200180831161063d57829003601f168201915b5050505050905090565b600061066f82611a37565b6004600083815260200190815260200160002060009054906101000a900473ffffffffffffffffffffffffffffffffffffffff169050919050565b60006106b582610d33565b90508073ffffffffffffffffffffffffffffffffffffffff168373ffffffffffffffffffffffffffffffffffffffff1603610725576040517f08c379a000000000000000000000000000000000000000000000000000000000815260040161071c906135cc565b60405180910390fd5b8073ffffffffffffffffffffffffffffffffffffffff16610744611a82565b73ffffffffffffffffffffffffffffffffffffffff16148061077357506107728161076d611a82565b611939565b5b6107b2576040517f08c379a00000000000000000000000000000000000000000000000000000000081526004016107a99061365e565b60405180910390fd5b6107bc8383611a8a565b505050565b60006107ce600b54611b43565b600b54905090565b600b54341461081a576040517f08c379a0000000000000000000000000000000000000000000000000000000008152600401610811906136ca565b60405180910390fd5b3373ffffffffffffffffffffffffffffffffffffffff166009600084815260200190815260200160002060020160009054906101000a900473ffffffffffffffffffffffffffffffffffffffff1673ffffffffffffffffffffffffffffffffffffffff16146108be576040517f08c379a00000000000000000000000000000000000000000000000000000000081526004016108b590613736565b60405180910390fd5b600015156009600084815260200190815260200160002060040160009054906101000a90505050806009600084815260200190815260200160002050503373ffffffffffffffffffffffffffffffffffffffff166009600084815260200190815260200160002060010160009054906101000a905050503073ffffffffffffffffffffffffffffffffffffffff166009600084815260200190815260200160002060020160009054906101000a905050506109796008611bdc565b610984333083611c38565b817f148543af2976a27506276ef8982c517ba8afb96f5f1df32646f5307fbcac441033308460006040516109bb94939291906137b5565b60405180910390a25050565b606060006109d56007611f31565b905060008060005b83811015610a7d573373ffffffffffffffffffffffffffffffffffffffff1660096000600184610a0d9190613829565b815260200190815260200160002060020160009054906101000a900473ffffffffffffffffffffffffffffffffffffffff1673ffffffffffffffffffffffffffffffffffffffff1603610a6a57600181610a679190613829565b92505b8080610a759061385d565b9150506109dd565b5060008267ffffffffffffffff811115610a9a57610a9961330c565b5b604051908082528060200260200182016040528015610ad357816020015b610ac0612c5c565b815260200190600190039081610ab85790505b50905060005b84811015610ca8573373ffffffffffffffffffffffffffffffffffffffff1660096000600184610b099190613829565b815260200190815260200160002060020160009054906101000a900473ffffffffffffffffffffffffffffffffffffffff1673ffffffffffffffffffffffffffffffffffffffff1603610c95576000600182610b659190613829565b90506000600960008381526020019081526020016000209050806040518060a0016040529081600082015481526020016001820160009054906101000a900473ffffffffffffffffffffffffffffffffffffffff1673ffffffffffffffffffffffffffffffffffffffff1673ffffffffffffffffffffffffffffffffffffffff1681526020016002820160009054906101000a900473ffffffffffffffffffffffffffffffffffffffff1673ffffffffffffffffffffffffffffffffffffffff1673ffffffffffffffffffffffffffffffffffffffff168152602001600382015481526020016004820160009054906101000a900460ff161515151581525050848681518110610c7857610c776138a5565b5b6020026020010181905250600185610c909190613829565b945050505b8080610ca09061385d565b915050610ad9565b508094505050505090565b610cc4610cbe611a82565b82611f3f565b610d03576040517f08c379a0000000000000000000000000000000000000000000000000000000008152600401610cfa90613946565b60405180910390fd5b610d0e838383611c38565b505050565b610d2e8383836040518060200160405280600081525061155d565b505050565b600080610d3f83611fd4565b9050600073ffffffffffffffffffffffffffffffffffffffff168173ffffffffffffffffffffffffffffffffffffffff1603610db0576040517f08c379a0000000000000000000000000000000000000000000000000000000008152600401610da7906139b2565b60405180910390fd5b80915050919050565b60008073ffffffffffffffffffffffffffffffffffffffff168273ffffffffffffffffffffffffffffffffffffffff1603610e29576040517f08c379a0000000000000000000000000000000000000000000000000000000008152600401610e2090613a44565b60405180910390fd5b600360008373ffffffffffffffffffffffffffffffffffffffff1673ffffffffffffffffffffffffffffffffffffffff168152602001908152602001600020549050919050565b600a60009054906101000a900473ffffffffffffffffffffffffffffffffffffffff1673ffffffffffffffffffffffffffffffffffffffff163373ffffffffffffffffffffffffffffffffffffffff1614610f00576040517f08c379a0000000000000000000000000000000000000000000000000000000008152600401610ef790613ab0565b60405180910390fd5b80600b8190555050565b60606000610f186007611f31565b905060008060005b83811015610fc0573373ffffffffffffffffffffffffffffffffffffffff1660096000600184610f509190613829565b815260200190815260200160002060010160009054906101000a900473ffffffffffffffffffffffffffffffffffffffff1673ffffffffffffffffffffffffffffffffffffffff1603610fad57600181610faa9190613829565b92505b8080610fb89061385d565b915050610f20565b5060008267ffffffffffffffff811115610fdd57610fdc61330c565b5b60405190808252806020026020018201604052801561101657816020015b611003612c5c565b815260200190600190039081610ffb5790505b50905060005b848110156111eb573373ffffffffffffffffffffffffffffffffffffffff166009600060018461104c9190613829565b815260200190815260200160002060010160009054906101000a900473ffffffffffffffffffffffffffffffffffffffff1673ffffffffffffffffffffffffffffffffffffffff16036111d85760006001826110a89190613829565b90506000600960008381526020019081526020016000209050806040518060a0016040529081600082015481526020016001820160009054906101000a900473ffffffffffffffffffffffffffffffffffffffff1673ffffffffffffffffffffffffffffffffffffffff1673ffffffffffffffffffffffffffffffffffffffff1681526020016002820160009054906101000a900473ffffffffffffffffffffffffffffffffffffffff1673ffffffffffffffffffffffffffffffffffffffff1673ffffffffffffffffffffffffffffffffffffffff168152602001600382015481526020016004820160009054906101000a900460ff1615151515815250508486815181106111bb576111ba6138a5565b5b60200260200101819052506001856111d39190613829565b945050505b80806111e39061385d565b91505061101c565b508094505050505090565b600060096000838152602001908152602001600020600301549050803414611253576040517f08c379a000000000000000000000000000000000000000000000000000000000815260040161124a90613b1c565b60405180910390fd5b336009600084815260200190815260200160002060020160006101000a81548173ffffffffffffffffffffffffffffffffffffffff021916908373ffffffffffffffffffffffffffffffffffffffff16021790555060016009600084815260200190815260200160002060040160006101000a81548160ff02191690831515021790555060006009600084815260200190815260200160002060020160006101000a81548173ffffffffffffffffffffffffffffffffffffffff021916908373ffffffffffffffffffffffffffffffffffffffff1602179055506113376008612011565b611342303384611c38565b600a60009054906101000a900473ffffffffffffffffffffffffffffffffffffffff1673ffffffffffffffffffffffffffffffffffffffff166108fc600b549081150290604051600060405180830381858888f193505050501580156113ac573d6000803e3d6000fd5b506009600083815260200190815260200160002060010160009054906101000a900473ffffffffffffffffffffffffffffffffffffffff1673ffffffffffffffffffffffffffffffffffffffff166108fc349081150290604051600060405180830381858888f19350505050158015611429573d6000803e3d6000fd5b505050565b60606001805461143d90613529565b80601f016020809104026020016040519081016040528092919081815260200182805461146990613529565b80156114b65780601f1061148b576101008083540402835291602001916114b6565b820191906000526020600020905b81548152906001019060200180831161149957829003601f168201915b5050505050905090565b6114d26114cb611a82565b8383612027565b5050565b60006114e26007612011565b60006114ee6007611f31565b90506114fa3382612193565b6115488186868080601f016020809104026020016040519081016040528093929190818152602001838380828437600081840152601f19601f820116905080830192505050505050506123b0565b611552818461241d565b809150509392505050565b61156e611568611a82565b83611f3f565b6115ad576040517f08c379a00000000000000000000000000000000000000000000000000000000081526004016115a490613946565b60405180910390fd5b6115b984848484612620565b50505050565b60606115ca82611a37565b60006006600084815260200190815260200160002080546115ea90613529565b80601f016020809104026020016040519081016040528092919081815260200182805461161690613529565b80156116635780601f1061163857610100808354040283529160200191611663565b820191906000526020600020905b81548152906001019060200180831161164657829003601f168201915b50505050509050600061167461267c565b905060008151036116895781925050506116cc565b6000825111156116be5780826040516020016116a6929190613b78565b604051602081830303815290604052925050506116cc565b6116c784612693565b925050505b919050565b606060006116df6007611f31565b905060006116ed6008611f31565b6116f76007611f31565b6117019190613b9c565b90506000808267ffffffffffffffff8111156117205761171f61330c565b5b60405190808252806020026020018201604052801561175957816020015b611746612c5c565b81526020019060019003908161173e5790505b50905060005b8481101561192e573073ffffffffffffffffffffffffffffffffffffffff166009600060018461178f9190613829565b815260200190815260200160002060020160009054906101000a900473ffffffffffffffffffffffffffffffffffffffff1673ffffffffffffffffffffffffffffffffffffffff160361191b5760006001826117eb9190613829565b90506000600960008381526020019081526020016000209050806040518060a0016040529081600082015481526020016001820160009054906101000a900473ffffffffffffffffffffffffffffffffffffffff1673ffffffffffffffffffffffffffffffffffffffff1673ffffffffffffffffffffffffffffffffffffffff1681526020016002820160009054906101000a900473ffffffffffffffffffffffffffffffffffffffff1673ffffffffffffffffffffffffffffffffffffffff1673ffffffffffffffffffffffffffffffffffffffff168152602001600382015481526020016004820160009054906101000a900460ff1615151515815250508486815181106118fe576118fd6138a5565b5b60200260200101819052506001856119169190613829565b945050505b80806119269061385d565b91505061175f565b508094505050505090565b6000600560008473ffffffffffffffffffffffffffffffffffffffff1673ffffffffffffffffffffffffffffffffffffffff16815260200190815260200160002060008373ffffffffffffffffffffffffffffffffffffffff1673ffffffffffffffffffffffffffffffffffffffff16815260200190815260200160002060009054906101000a900460ff16905092915050565b60007f01ffc9a7000000000000000000000000000000000000000000000000000000007bffffffffffffffffffffffffffffffffffffffffffffffffffffffff1916827bffffffffffffffffffffffffffffffffffffffffffffffffffffffff1916149050919050565b611a40816126fb565b611a7f576040517f08c379a0000000000000000000000000000000000000000000000000000000008152600401611a76906139b2565b60405180910390fd5b50565b600033905090565b816004600083815260200190815260200160002060006101000a81548173ffffffffffffffffffffffffffffffffffffffff021916908373ffffffffffffffffffffffffffffffffffffffff160217905550808273ffffffffffffffffffffffffffffffffffffffff16611afd83610d33565b73ffffffffffffffffffffffffffffffffffffffff167f8c5be1e5ebec7d5bd14f71427d1e84f3dd0314c0f7b2291e5b200ac8c7c3b92560405160405180910390a45050565b611bd981604051602401611b579190612f74565b6040516020818303038152906040527ff82c50f1000000000000000000000000000000000000000000000000000000007bffffffffffffffffffffffffffffffffffffffffffffffffffffffff19166020820180517bffffffffffffffffffffffffffffffffffffffffffffffffffffffff838183161783525050505061273c565b50565b60008160000154905060008111611c28576040517f08c379a0000000000000000000000000000000000000000000000000000000008152600401611c1f90613c1c565b60405180910390fd5b6001810382600001819055505050565b8273ffffffffffffffffffffffffffffffffffffffff16611c5882610d33565b73ffffffffffffffffffffffffffffffffffffffff1614611cae576040517f08c379a0000000000000000000000000000000000000000000000000000000008152600401611ca590613cae565b60405180910390fd5b600073ffffffffffffffffffffffffffffffffffffffff168273ffffffffffffffffffffffffffffffffffffffff1603611d1d576040517f08c379a0000000000000000000000000000000000000000000000000000000008152600401611d1490613d40565b60405180910390fd5b611d2a8383836001612765565b8273ffffffffffffffffffffffffffffffffffffffff16611d4a82610d33565b73ffffffffffffffffffffffffffffffffffffffff1614611da0576040517f08c379a0000000000000000000000000000000000000000000000000000000008152600401611d9790613cae565b60405180910390fd5b6004600082815260200190815260200160002060006101000a81549073ffffffffffffffffffffffffffffffffffffffff02191690556001600360008573ffffffffffffffffffffffffffffffffffffffff1673ffffffffffffffffffffffffffffffffffffffff168152602001908152602001600020600082825403925050819055506001600360008473ffffffffffffffffffffffffffffffffffffffff1673ffffffffffffffffffffffffffffffffffffffff16815260200190815260200160002060008282540192505081905550816002600083815260200190815260200160002060006101000a81548173ffffffffffffffffffffffffffffffffffffffff021916908373ffffffffffffffffffffffffffffffffffffffff160217905550808273ffffffffffffffffffffffffffffffffffffffff168473ffffffffffffffffffffffffffffffffffffffff167fddf252ad1be2c89b69c2b068fc378daa952ba7f163c4a11628f55a4df523b3ef60405160405180910390a4611f2c838383600161288b565b505050565b600081600001549050919050565b600080611f4b83610d33565b90508073ffffffffffffffffffffffffffffffffffffffff168473ffffffffffffffffffffffffffffffffffffffff161480611f8d5750611f8c8185611939565b5b80611fcb57508373ffffffffffffffffffffffffffffffffffffffff16611fb384610664565b73ffffffffffffffffffffffffffffffffffffffff16145b91505092915050565b60006002600083815260200190815260200160002060009054906101000a900473ffffffffffffffffffffffffffffffffffffffff169050919050565b6001816000016000828254019250508190555050565b8173ffffffffffffffffffffffffffffffffffffffff168373ffffffffffffffffffffffffffffffffffffffff1603612095576040517f08c379a000000000000000000000000000000000000000000000000000000000815260040161208c90613dac565b60405180910390fd5b80600560008573ffffffffffffffffffffffffffffffffffffffff1673ffffffffffffffffffffffffffffffffffffffff16815260200190815260200160002060008473ffffffffffffffffffffffffffffffffffffffff1673ffffffffffffffffffffffffffffffffffffffff16815260200190815260200160002060006101000a81548160ff0219169083151502179055508173ffffffffffffffffffffffffffffffffffffffff168373ffffffffffffffffffffffffffffffffffffffff167f17307eab39ab6107e8899845ad3d59bd9653f200f220920489ca2b5937696c31836040516121869190612d6d565b60405180910390a3505050565b600073ffffffffffffffffffffffffffffffffffffffff168273ffffffffffffffffffffffffffffffffffffffff1603612202576040517f08c379a00000000000000000000000000000000000000000000000000000000081526004016121f990613e18565b60405180910390fd5b61220b816126fb565b1561224b576040517f08c379a000000000000000000000000000000000000000000000000000000000815260040161224290613e84565b60405180910390fd5b612259600083836001612765565b612262816126fb565b156122a2576040517f08c379a000000000000000000000000000000000000000000000000000000000815260040161229990613e84565b60405180910390fd5b6001600360008473ffffffffffffffffffffffffffffffffffffffff1673ffffffffffffffffffffffffffffffffffffffff16815260200190815260200160002060008282540192505081905550816002600083815260200190815260200160002060006101000a81548173ffffffffffffffffffffffffffffffffffffffff021916908373ffffffffffffffffffffffffffffffffffffffff160217905550808273ffffffffffffffffffffffffffffffffffffffff16600073ffffffffffffffffffffffffffffffffffffffff167fddf252ad1be2c89b69c2b068fc378daa952ba7f163c4a11628f55a4df523b3ef60405160405180910390a46123ac60008383600161288b565b5050565b6123b9826126fb565b6123f8576040517f08c379a00000000000000000000000000000000000000000000000000000000081526004016123ef90613f16565b60405180910390fd5b8060066000848152602001908152602001600020908161241891906140d8565b505050565b600b543414612461576040517f08c379a0000000000000000000000000000000000000000000000000000000008152600401612458906136ca565b60405180910390fd5b600081146124a4576040517f08c379a000000000000000000000000000000000000000000000000000000000815260040161249b906141f6565b60405180910390fd5b6040518060a001604052808381526020013373ffffffffffffffffffffffffffffffffffffffff1681526020013073ffffffffffffffffffffffffffffffffffffffff16815260200182815260200160001515815250600960008481526020019081526020016000206000820151816000015560208201518160010160006101000a81548173ffffffffffffffffffffffffffffffffffffffff021916908373ffffffffffffffffffffffffffffffffffffffff16021790555060408201518160020160006101000a81548173ffffffffffffffffffffffffffffffffffffffff021916908373ffffffffffffffffffffffffffffffffffffffff1602179055506060820151816003015560808201518160040160006101000a81548160ff0219169083151502179055509050506125dd333084611c38565b817f148543af2976a27506276ef8982c517ba8afb96f5f1df32646f5307fbcac4410333084600060405161261494939291906137b5565b60405180910390a25050565b61262b848484611c38565b61263784848484612891565b612676576040517f08c379a000000000000000000000000000000000000000000000000000000000815260040161266d90614288565b60405180910390fd5b50505050565b606060405180602001604052806000815250905090565b606061269e82611a37565b60006126a861267c565b905060008151116126c857604051806020016040528060008152506126f3565b806126d284612a18565b6040516020016126e3929190613b78565b6040516020818303038152906040525b915050919050565b60008073ffffffffffffffffffffffffffffffffffffffff1661271d83611fd4565b73ffffffffffffffffffffffffffffffffffffffff1614159050919050565b60008151905060006a636f6e736f6c652e6c6f679050602083016000808483855afa5050505050565b600181111561288557600073ffffffffffffffffffffffffffffffffffffffff168473ffffffffffffffffffffffffffffffffffffffff16146127f95780600360008673ffffffffffffffffffffffffffffffffffffffff1673ffffffffffffffffffffffffffffffffffffffff16815260200190815260200160002060008282546127f19190613b9c565b925050819055505b600073ffffffffffffffffffffffffffffffffffffffff168373ffffffffffffffffffffffffffffffffffffffff16146128845780600360008573ffffffffffffffffffffffffffffffffffffffff1673ffffffffffffffffffffffffffffffffffffffff168152602001908152602001600020600082825461287c9190613829565b925050819055505b5b50505050565b50505050565b60006128b28473ffffffffffffffffffffffffffffffffffffffff16612ae6565b15612a0b578373ffffffffffffffffffffffffffffffffffffffff1663150b7a026128db611a82565b8786866040518563ffffffff1660e01b81526004016128fd94939291906142fd565b6020604051808303816000875af192505050801561293957506040513d601f19601f82011682018060405250810190612936919061435e565b60015b6129bb573d8060008114612969576040519150601f19603f3d011682016040523d82523d6000602084013e61296e565b606091505b5060008151036129b3576040517f08c379a00000000000000000000000000000000000000000000000000000000081526004016129aa90614288565b60405180910390fd5b805181602001fd5b63150b7a0260e01b7bffffffffffffffffffffffffffffffffffffffffffffffffffffffff1916817bffffffffffffffffffffffffffffffffffffffffffffffffffffffff191614915050612a10565b600190505b949350505050565b606060006001612a2784612b09565b01905060008167ffffffffffffffff811115612a4657612a4561330c565b5b6040519080825280601f01601f191660200182016040528015612a785781602001600182028036833780820191505090505b509050600082602001820190505b600115612adb578080600190039150507f3031323334353637383961626364656600000000000000000000000000000000600a86061a8153600a8581612acf57612ace61438b565b5b04945060008503612a86575b819350505050919050565b6000808273ffffffffffffffffffffffffffffffffffffffff163b119050919050565b600080600090507a184f03e93ff9f4daa797ed6e38ed64bf6a1f0100000000000000008310612b67577a184f03e93ff9f4daa797ed6e38ed64bf6a1f0100000000000000008381612b5d57612b5c61438b565b5b0492506040810190505b6d04ee2d6d415b85acef81000000008310612ba4576d04ee2d6d415b85acef81000000008381612b9a57612b9961438b565b5b0492506020810190505b662386f26fc100008310612bd357662386f26fc100008381612bc957612bc861438b565b5b0492506010810190505b6305f5e1008310612bfc576305f5e1008381612bf257612bf161438b565b5b0492506008810190505b6127108310612c21576127108381612c1757612c1661438b565b5b0492506004810190505b60648310612c445760648381612c3a57612c3961438b565b5b0492506002810190505b600a8310612c53576001810190505b80915050919050565b6040518060a0016040528060008152602001600073ffffffffffffffffffffffffffffffffffffffff168152602001600073ffffffffffffffffffffffffffffffffffffffff168152602001600081526020016000151581525090565b6000604051905090565b600080fd5b600080fd5b60007fffffffff0000000000000000000000000000000000000000000000000000000082169050919050565b612d0281612ccd565b8114612d0d57600080fd5b50565b600081359050612d1f81612cf9565b92915050565b600060208284031215612d3b57612d3a612cc3565b5b6000612d4984828501612d10565b91505092915050565b60008115159050919050565b612d6781612d52565b82525050565b6000602082019050612d826000830184612d5e565b92915050565b600081519050919050565b600082825260208201905092915050565b60005b83811015612dc2578082015181840152602081019050612da7565b60008484015250505050565b6000601f19601f8301169050919050565b6000612dea82612d88565b612df48185612d93565b9350612e04818560208601612da4565b612e0d81612dce565b840191505092915050565b60006020820190508181036000830152612e328184612ddf565b905092915050565b6000819050919050565b612e4d81612e3a565b8114612e5857600080fd5b50565b600081359050612e6a81612e44565b92915050565b600060208284031215612e8657612e85612cc3565b5b6000612e9484828501612e5b565b91505092915050565b600073ffffffffffffffffffffffffffffffffffffffff82169050919050565b6000612ec882612e9d565b9050919050565b612ed881612ebd565b82525050565b6000602082019050612ef36000830184612ecf565b92915050565b612f0281612ebd565b8114612f0d57600080fd5b50565b600081359050612f1f81612ef9565b92915050565b60008060408385031215612f3c57612f3b612cc3565b5b6000612f4a85828601612f10565b9250506020612f5b85828601612e5b565b9150509250929050565b612f6e81612e3a565b82525050565b6000602082019050612f896000830184612f65565b92915050565b60008060408385031215612fa657612fa5612cc3565b5b6000612fb485828601612e5b565b9250506020612fc585828601612e5b565b9150509250929050565b600081519050919050565b600082825260208201905092915050565b6000819050602082019050919050565b61300481612e3a565b82525050565b600061301582612e9d565b9050919050565b6130258161300a565b82525050565b61303481612ebd565b82525050565b61304381612d52565b82525050565b60a08201600082015161305f6000850182612ffb565b506020820151613072602085018261301c565b506040820151613085604085018261302b565b5060608201516130986060850182612ffb565b5060808201516130ab608085018261303a565b50505050565b60006130bd8383613049565b60a08301905092915050565b6000602082019050919050565b60006130e182612fcf565b6130eb8185612fda565b93506130f683612feb565b8060005b8381101561312757815161310e88826130b1565b9750613119836130c9565b9250506001810190506130fa565b5085935050505092915050565b6000602082019050818103600083015261314e81846130d6565b905092915050565b60008060006060848603121561316f5761316e612cc3565b5b600061317d86828701612f10565b935050602061318e86828701612f10565b925050604061319f86828701612e5b565b9150509250925092565b6000602082840312156131bf576131be612cc3565b5b60006131cd84828501612f10565b91505092915050565b6131df81612d52565b81146131ea57600080fd5b50565b6000813590506131fc816131d6565b92915050565b6000806040838503121561321957613218612cc3565b5b600061322785828601612f10565b9250506020613238858286016131ed565b9150509250929050565b600080fd5b600080fd5b600080fd5b60008083601f84011261326757613266613242565b5b8235905067ffffffffffffffff81111561328457613283613247565b5b6020830191508360018202830111156132a05761329f61324c565b5b9250929050565b6000806000604084860312156132c0576132bf612cc3565b5b600084013567ffffffffffffffff8111156132de576132dd612cc8565b5b6132ea86828701613251565b935093505060206132fd86828701612e5b565b9150509250925092565b600080fd5b7f4e487b7100000000000000000000000000000000000000000000000000000000600052604160045260246000fd5b61334482612dce565b810181811067ffffffffffffffff821117156133635761336261330c565b5b80604052505050565b6000613376612cb9565b9050613382828261333b565b919050565b600067ffffffffffffffff8211156133a2576133a161330c565b5b6133ab82612dce565b9050602081019050919050565b82818337600083830152505050565b60006133da6133d584613387565b61336c565b9050828152602081018484840111156133f6576133f5613307565b5b6134018482856133b8565b509392505050565b600082601f83011261341e5761341d613242565b5b813561342e8482602086016133c7565b91505092915050565b6000806000806080858703121561345157613450612cc3565b5b600061345f87828801612f10565b945050602061347087828801612f10565b935050604061348187828801612e5b565b925050606085013567ffffffffffffffff8111156134a2576134a1612cc8565b5b6134ae87828801613409565b91505092959194509250565b600080604083850312156134d1576134d0612cc3565b5b60006134df85828601612f10565b92505060206134f085828601612f10565b9150509250929050565b7f4e487b7100000000000000000000000000000000000000000000000000000000600052602260045260246000fd5b6000600282049050600182168061354157607f821691505b602082108103613554576135536134fa565b5b50919050565b7f4552433732313a20617070726f76616c20746f2063757272656e74206f776e6560008201527f7200000000000000000000000000000000000000000000000000000000000000602082015250565b60006135b6602183612d93565b91506135c18261355a565b604082019050919050565b600060208201905081810360008301526135e5816135a9565b9050919050565b7f4552433732313a20617070726f76652063616c6c6572206973206e6f7420746f60008201527f6b656e206f776e6572206f7220617070726f76656420666f7220616c6c000000602082015250565b6000613648603d83612d93565b9150613653826135ec565b604082019050919050565b600060208201905081810360008301526136778161363b565b9050919050565b7f5072696365206d757374206265206c697374696e672070726963650000000000600082015250565b60006136b4601b83612d93565b91506136bf8261367e565b602082019050919050565b600060208201905081810360008301526136e3816136a7565b9050919050565b7f596f75206d75737420626520746865206f776e6572206f6620746865206e6674600082015250565b6000613720602083612d93565b915061372b826136ea565b602082019050919050565b6000602082019050818103600083015261374f81613713565b9050919050565b6000819050919050565b600061377b61377661377184612e9d565b613756565b612e9d565b9050919050565b600061378d82613760565b9050919050565b600061379f82613782565b9050919050565b6137af81613794565b82525050565b60006080820190506137ca60008301876137a6565b6137d760208301866137a6565b6137e46040830185612f65565b6137f16060830184612d5e565b95945050505050565b7f4e487b7100000000000000000000000000000000000000000000000000000000600052601160045260246000fd5b600061383482612e3a565b915061383f83612e3a565b9250828201905080821115613857576138566137fa565b5b92915050565b600061386882612e3a565b91507fffffffffffffffffffffffffffffffffffffffffffffffffffffffffffffffff820361389a576138996137fa565b5b600182019050919050565b7f4e487b7100000000000000000000000000000000000000000000000000000000600052603260045260246000fd5b7f4552433732313a2063616c6c6572206973206e6f7420746f6b656e206f776e6560008201527f72206f7220617070726f76656400000000000000000000000000000000000000602082015250565b6000613930602d83612d93565b915061393b826138d4565b604082019050919050565b6000602082019050818103600083015261395f81613923565b9050919050565b7f4552433732313a20696e76616c696420746f6b656e2049440000000000000000600082015250565b600061399c601883612d93565b91506139a782613966565b602082019050919050565b600060208201905081810360008301526139cb8161398f565b9050919050565b7f4552433732313a2061646472657373207a65726f206973206e6f74206120766160008201527f6c6964206f776e65720000000000000000000000000000000000000000000000602082015250565b6000613a2e602983612d93565b9150613a39826139d2565b604082019050919050565b60006020820190508181036000830152613a5d81613a21565b9050919050565b7f4f6e6c79206f776e65722063616e206163636573732069740000000000000000600082015250565b6000613a9a601883612d93565b9150613aa582613a64565b602082019050919050565b60006020820190508181036000830152613ac981613a8d565b9050919050565b7f506c6561736520636865636b2074686520707269636520616d6f756e74000000600082015250565b6000613b06601d83612d93565b9150613b1182613ad0565b602082019050919050565b60006020820190508181036000830152613b3581613af9565b9050919050565b600081905092915050565b6000613b5282612d88565b613b5c8185613b3c565b9350613b6c818560208601612da4565b80840191505092915050565b6000613b848285613b47565b9150613b908284613b47565b91508190509392505050565b6000613ba782612e3a565b9150613bb283612e3a565b9250828203905081811115613bca57613bc96137fa565b5b92915050565b7f436f756e7465723a2064656372656d656e74206f766572666c6f770000000000600082015250565b6000613c06601b83612d93565b9150613c1182613bd0565b602082019050919050565b60006020820190508181036000830152613c3581613bf9565b9050919050565b7f4552433732313a207472616e736665722066726f6d20696e636f72726563742060008201527f6f776e6572000000000000000000000000000000000000000000000000000000602082015250565b6000613c98602583612d93565b9150613ca382613c3c565b604082019050919050565b60006020820190508181036000830152613cc781613c8b565b9050919050565b7f4552433732313a207472616e7366657220746f20746865207a65726f2061646460008201527f7265737300000000000000000000000000000000000000000000000000000000602082015250565b6000613d2a602483612d93565b9150613d3582613cce565b604082019050919050565b60006020820190508181036000830152613d5981613d1d565b9050919050565b7f4552433732313a20617070726f766520746f2063616c6c657200000000000000600082015250565b6000613d96601983612d93565b9150613da182613d60565b602082019050919050565b60006020820190508181036000830152613dc581613d89565b9050919050565b7f4552433732313a206d696e7420746f20746865207a65726f2061646472657373600082015250565b6000613e02602083612d93565b9150613e0d82613dcc565b602082019050919050565b60006020820190508181036000830152613e3181613df5565b9050919050565b7f4552433732313a20746f6b656e20616c7265616479206d696e74656400000000600082015250565b6000613e6e601c83612d93565b9150613e7982613e38565b602082019050919050565b60006020820190508181036000830152613e9d81613e61565b9050919050565b7f45524337323155524953746f726167653a2055524920736574206f66206e6f6e60008201527f6578697374656e7420746f6b656e000000000000000000000000000000000000602082015250565b6000613f00602e83612d93565b9150613f0b82613ea4565b604082019050919050565b60006020820190508181036000830152613f2f81613ef3565b9050919050565b60008190508160005260206000209050919050565b60006020601f8301049050919050565b600082821b905092915050565b600060088302613f987fffffffffffffffffffffffffffffffffffffffffffffffffffffffffffffffff82613f5b565b613fa28683613f5b565b95508019841693508086168417925050509392505050565b6000613fd5613fd0613fcb84612e3a565b613756565b612e3a565b9050919050565b6000819050919050565b613fef83613fba565b614003613ffb82613fdc565b848454613f68565b825550505050565b600090565b61401861400b565b614023818484613fe6565b505050565b5b818110156140475761403c600082614010565b600181019050614029565b5050565b601f82111561408c5761405d81613f36565b61406684613f4b565b81016020851015614075578190505b61408961408185613f4b565b830182614028565b50505b505050565b600082821c905092915050565b60006140af60001984600802614091565b1980831691505092915050565b60006140c8838361409e565b9150826002028217905092915050565b6140e182612d88565b67ffffffffffffffff8111156140fa576140f961330c565b5b6141048254613529565b61410f82828561404b565b600060209050601f8311600181146141425760008415614130578287015190505b61413a85826140bc565b8655506141a2565b601f19841661415086613f36565b60005b8281101561417857848901518255600182019150602085019450602081019050614153565b868310156141955784890151614191601f89168261409e565b8355505b6001600288020188555050505b505050505050565b7f5072696365207265717569726564000000000000000000000000000000000000600082015250565b60006141e0600e83612d93565b91506141eb826141aa565b602082019050919050565b6000602082019050818103600083015261420f816141d3565b9050919050565b7f4552433732313a207472616e7366657220746f206e6f6e20455243373231526560008201527f63656976657220696d706c656d656e7465720000000000000000000000000000602082015250565b6000614272603283612d93565b915061427d82614216565b604082019050919050565b600060208201905081810360008301526142a181614265565b9050919050565b600081519050919050565b600082825260208201905092915050565b60006142cf826142a8565b6142d981856142b3565b93506142e9818560208601612da4565b6142f281612dce565b840191505092915050565b60006080820190506143126000830187612ecf565b61431f6020830186612ecf565b61432c6040830185612f65565b818103606083015261433e81846142c4565b905095945050505050565b60008151905061435881612cf9565b92915050565b60006020828403121561437457614373612cc3565b5b600061438284828501614349565b91505092915050565b7f4e487b7100000000000000000000000000000000000000000000000000000000600052601260045260246000fdfea26469706673582212200b603e4f7718cbc7723e541404f49da4d373ce51b7f57714e7673e79bc52199064736f6c63430008110033",
  "linkReferences": {},
  "deployedLinkReferences": {}
}