{
  "_format": "hh-sol-artifact-1",
  "contractName": "ASE",
  "sourceName": "contracts/Lock.sol",
  "abi": [
    {
      "inputs": [],
      "stateMutability": "nonpayable",
      "type": "constructor"
    },
    {
      "anonymous": false,
      "inputs": [
        {
          "indexed": true,
          "internalType": "address",
          "name": "owner",
          "type": "address"
        },
        {
          "indexed": true,
          "internalType": "address",
          "name": "approved",
          "type": "address"
        },
        {
          "indexed": true,
          "internalType": "uint256",
          "name": "tokenId",
          "type": "uint256"
        }
      ],
      "name": "Approval",
      "type": "event"
    },
    {
      "anonymous": false,
      "inputs": [
        {
          "indexed": true,
          "internalType": "address",
          "name": "owner",
          "type": "address"
        },
        {
          "indexed": true,
          "internalType": "address",
          "name": "operator",
          "type": "address"
        },
        {
          "indexed": false,
          "internalType": "bool",
          "name": "approved",
          "type": "bool"
        }
      ],
      "name": "ApprovalForAll",
      "type": "event"
    },
    {
      "anonymous": false,
      "inputs": [
        {
          "indexed": true,
          "internalType": "address",
          "name": "from",
          "type": "address"
        },
        {
          "indexed": true,
          "internalType": "address",
          "name": "to",
          "type": "address"
        },
        {
          "indexed": true,
          "internalType": "uint256",
          "name": "tokenId",
          "type": "uint256"
        }
      ],
      "name": "Transfer",
      "type": "event"
    },
    {
      "anonymous": false,
      "inputs": [
        {
          "indexed": true,
          "internalType": "uint256",
          "name": "tokenid",
          "type": "uint256"
        },
        {
          "indexed": false,
          "internalType": "address",
          "name": "sender",
          "type": "address"
        },
        {
          "indexed": false,
          "internalType": "address",
          "name": "owner",
          "type": "address"
        },
        {
          "indexed": false,
          "internalType": "uint256",
          "name": "price",
          "type": "uint256"
        },
        {
          "indexed": false,
          "internalType": "bool",
          "name": "issold",
          "type": "bool"
        }
      ],
      "name": "infoMarketitem",
      "type": "event"
    },
    {
      "inputs": [
        {
          "internalType": "string",
          "name": "tokenuri",
          "type": "string"
        },
        {
          "internalType": "uint256",
          "name": "amount",
          "type": "uint256"
        }
      ],
      "name": "Createnft",
      "outputs": [
        {
          "internalType": "uint256",
          "name": "",
          "type": "uint256"
        }
      ],
      "stateMutability": "payable",
      "type": "function"
    },
    {
      "inputs": [
        {
          "internalType": "address",
          "name": "to",
          "type": "address"
        },
        {
          "internalType": "uint256",
          "name": "tokenId",
          "type": "uint256"
        }
      ],
      "name": "approve",
      "outputs": [],
      "stateMutability": "nonpayable",
      "type": "function"
    },
    {
      "inputs": [
        {
          "internalType": "address",
          "name": "owner",
          "type": "address"
        }
      ],
      "name": "balanceOf",
      "outputs": [
        {
          "internalType": "uint256",
          "name": "",
          "type": "uint256"
        }
      ],
      "stateMutability": "view",
      "type": "function"
    },
    {
      "inputs": [],
      "name": "fetchnft",
      "outputs": [
        {
          "components": [
            {
              "internalType": "uint256",
              "name": "tokenid",
              "type": "uint256"
            },
            {
              "internalType": "address payable",
              "name": "seller",
              "type": "address"
            },
            {
              "internalType": "address",
              "name": "owner",
              "type": "address"
            },
            {
              "internalType": "uint256",
              "name": "price",
              "type": "uint256"
            },
            {
              "internalType": "bool",
              "name": "issold",
              "type": "bool"
            }
          ],
          "internalType": "struct ASE.Marketitems[]",
          "name": "",
          "type": "tuple[]"
        }
      ],
      "stateMutability": "view",
      "type": "function"
    },
    {
      "inputs": [
        {
          "internalType": "uint256",
          "name": "tokenId",
          "type": "uint256"
        }
      ],
      "name": "getApproved",
      "outputs": [
        {
          "internalType": "address",
          "name": "",
          "type": "address"
        }
      ],
      "stateMutability": "view",
      "type": "function"
    },
    {
      "inputs": [
        {
          "internalType": "address",
          "name": "owner",
          "type": "address"
        },
        {
          "internalType": "address",
          "name": "operator",
          "type": "address"
        }
      ],
      "name": "isApprovedForAll",
      "outputs": [
        {
          "internalType": "bool",
          "name": "",
          "type": "bool"
        }
      ],
      "stateMutability": "view",
      "type": "function"
    },
    {
      "inputs": [],
      "name": "name",
      "outputs": [
        {
          "internalType": "string",
          "name": "",
          "type": "string"
        }
      ],
      "stateMutability": "view",
      "type": "function"
    },
    {
      "inputs": [
        {
          "internalType": "uint256",
          "name": "tokenId",
          "type": "uint256"
        }
      ],
      "name": "ownerOf",
      "outputs": [
        {
          "internalType": "address",
          "name": "",
          "type": "address"
        }
      ],
      "stateMutability": "view",
      "type": "function"
    },
    {
      "inputs": [
        {
          "internalType": "uint256",
          "name": "tokenid",
          "type": "uint256"
        },
        {
          "internalType": "uint256",
          "name": "amount",
          "type": "uint256"
        }
      ],
      "name": "resellnft",
      "outputs": [],
      "stateMutability": "payable",
      "type": "function"
    },
    {
      "inputs": [
        {
          "internalType": "address",
          "name": "from",
          "type": "address"
        },
        {
          "internalType": "address",
          "name": "to",
          "type": "address"
        },
        {
          "internalType": "uint256",
          "name": "tokenId",
          "type": "uint256"
        }
      ],
      "name": "safeTransferFrom",
      "outputs": [],
      "stateMutability": "nonpayable",
      "type": "function"
    },
    {
      "inputs": [
        {
          "internalType": "address",
          "name": "from",
          "type": "address"
        },
        {
          "internalType": "address",
          "name": "to",
          "type": "address"
        },
        {
          "internalType": "uint256",
          "name": "tokenId",
          "type": "uint256"
        },
        {
          "internalType": "bytes",
          "name": "data",
          "type": "bytes"
        }
      ],
      "name": "safeTransferFrom",
      "outputs": [],
      "stateMutability": "nonpayable",
      "type": "function"
    },
    {
      "inputs": [
        {
          "internalType": "uint256",
          "name": "tokenid",
          "type": "uint256"
        }
      ],
      "name": "salenft",
      "outputs": [],
      "stateMutability": "payable",
      "type": "function"
    },
    {
      "inputs": [],
      "name": "saleout",
      "outputs": [
        {
          "components": [
            {
              "internalType": "uint256",
              "name": "tokenid",
              "type": "uint256"
            },
            {
              "internalType": "address payable",
              "name": "seller",
              "type": "address"
            },
            {
              "internalType": "address",
              "name": "owner",
              "type": "address"
            },
            {
              "internalType": "uint256",
              "name": "price",
              "type": "uint256"
            },
            {
              "internalType": "bool",
              "name": "issold",
              "type": "bool"
            }
          ],
          "internalType": "struct ASE.Marketitems[]",
          "name": "",
          "type": "tuple[]"
        }
      ],
      "stateMutability": "view",
      "type": "function"
    },
    {
      "inputs": [
        {
          "internalType": "address",
          "name": "operator",
          "type": "address"
        },
        {
          "internalType": "bool",
          "name": "approved",
          "type": "bool"
        }
      ],
      "name": "setApprovalForAll",
      "outputs": [],
      "stateMutability": "nonpayable",
      "type": "function"
    },
    {
      "inputs": [
        {
          "internalType": "bytes4",
          "name": "interfaceId",
          "type": "bytes4"
        }
      ],
      "name": "supportsInterface",
      "outputs": [
        {
          "internalType": "bool",
          "name": "",
          "type": "bool"
        }
      ],
      "stateMutability": "view",
      "type": "function"
    },
    {
      "inputs": [],
      "name": "symbol",
      "outputs": [
        {
          "internalType": "string",
          "name": "",
          "type": "string"
        }
      ],
      "stateMutability": "view",
      "type": "function"
    },
    {
      "inputs": [
        {
          "internalType": "uint256",
          "name": "tokenId",
          "type": "uint256"
        }
      ],
      "name": "tokenURI",
      "outputs": [
        {
          "internalType": "string",
          "name": "",
          "type": "string"
        }
      ],
      "stateMutability": "view",
      "type": "function"
    },
    {
      "inputs": [
        {
          "internalType": "address",
          "name": "from",
          "type": "address"
        },
        {
          "internalType": "address",
          "name": "to",
          "type": "address"
        },
        {
          "internalType": "uint256",
          "name": "tokenId",
          "type": "uint256"
        }
      ],
      "name": "transferFrom",
      "outputs": [],
      "stateMutability": "nonpayable",
      "type": "function"
    },
    {
      "inputs": [],
      "name": "unsoldnft",
      "outputs": [
        {
          "components": [
            {
              "internalType": "uint256",
              "name": "tokenid",
              "type": "uint256"
            },
            {
              "internalType": "address payable",
              "name": "seller",
              "type": "address"
            },
            {
              "internalType": "address",
              "name": "owner",
              "type": "address"
            },
            {
              "internalType": "uint256",
              "name": "price",
              "type": "uint256"
            },
            {
              "internalType": "bool",
              "name": "issold",
              "type": "bool"
            }
          ],
          "internalType": "struct ASE.Marketitems[]",
          "name": "",
          "type": "tuple[]"
        }
      ],
      "stateMutability": "view",
      "type": "function"
    },
    {
      "inputs": [
        {
          "internalType": "uint256",
          "name": "_listingprice",
          "type": "uint256"
        }
      ],
      "name": "updatelisting",
      "outputs": [],
      "stateMutability": "payable",
      "type": "function"
    }
  ],
  "bytecode": "0x60806040526608e1bc9bf04000600b553480156200001c57600080fd5b506040518060400160405280600781526020017f4e4654424f4154000000000000000000000000000000000000000000000000008152506040518060400160405280600381526020017f4e4642000000000000000000000000000000000000000000000000000000000081525081600090816200009a919062000370565b508060019081620000ac919062000370565b50505033600a60006101000a81548173ffffffffffffffffffffffffffffffffffffffff021916908373ffffffffffffffffffffffffffffffffffffffff16021790555062000457565b600081519050919050565b7f4e487b7100000000000000000000000000000000000000000000000000000000600052604160045260246000fd5b7f4e487b7100000000000000000000000000000000000000000000000000000000600052602260045260246000fd5b600060028204905060018216806200017857607f821691505b6020821081036200018e576200018d62000130565b5b50919050565b60008190508160005260206000209050919050565b60006020601f8301049050919050565b600082821b905092915050565b600060088302620001f87fffffffffffffffffffffffffffffffffffffffffffffffffffffffffffffffff82620001b9565b620002048683620001b9565b95508019841693508086168417925050509392505050565b6000819050919050565b6000819050919050565b6000620002516200024b62000245846200021c565b62000226565b6200021c565b9050919050565b6000819050919050565b6200026d8362000230565b620002856200027c8262000258565b848454620001c6565b825550505050565b600090565b6200029c6200028d565b620002a981848462000262565b505050565b5b81811015620002d157620002c560008262000292565b600181019050620002af565b5050565b601f8211156200032057620002ea8162000194565b620002f584620001a9565b8101602085101562000305578190505b6200031d6200031485620001a9565b830182620002ae565b50505b505050565b600082821c905092915050565b6000620003456000198460080262000325565b1980831691505092915050565b600062000360838362000332565b9150826002028217905092915050565b6200037b82620000f6565b67ffffffffffffffff81111562000397576200039662000101565b5b620003a382546200015f565b620003b0828285620002d5565b600060209050601f831160018114620003e85760008415620003d3578287015190505b620003df858262000352565b8655506200044f565b601f198416620003f88662000194565b60005b828110156200042257848901518255600182019150602085019450602081019050620003fb565b868310156200044257848901516200043e601f89168262000332565b8355505b6001600288020188555050505b505050505050565b6142e380620004676000396000f3fe60806040526004361061011f5760003560e01c806373702f78116100a0578063a9285e2d11610064578063a9285e2d146103bc578063b88d4fde146103ec578063c87b56dd14610415578063ce27a93114610452578063e985e9c51461047d5761011f565b806373702f78146103055780637de9ebb3146103215780638762ba4d1461034c57806395d89b4114610368578063a22cb465146103935761011f565b806322216200116100e7578063222162001461020e57806323b872dd1461023957806342842e0e146102625780636352211e1461028b57806370a08231146102c85761011f565b806301ffc9a71461012457806306fdde0314610161578063081812fc1461018c578063095ea7b3146101c95780631aec3af4146101f2575b600080fd5b34801561013057600080fd5b5061014b60048036038101906101469190612c18565b6104ba565b6040516101589190612c60565b60405180910390f35b34801561016d57600080fd5b5061017661059c565b6040516101839190612d0b565b60405180910390f35b34801561019857600080fd5b506101b360048036038101906101ae9190612d63565b61062e565b6040516101c09190612dd1565b60405180910390f35b3480156101d557600080fd5b506101f060048036038101906101eb9190612e18565b610674565b005b61020c60048036038101906102079190612e58565b61078b565b005b34801561021a57600080fd5b5061022361097c565b6040516102309190612ffd565b60405180910390f35b34801561024557600080fd5b50610260600480360381019061025b919061301f565b610c68565b005b34801561026e57600080fd5b506102896004803603810190610284919061301f565b610cc8565b005b34801561029757600080fd5b506102b260048036038101906102ad9190612d63565b610ce8565b6040516102bf9190612dd1565b60405180910390f35b3480156102d457600080fd5b506102ef60048036038101906102ea9190613072565b610d6e565b6040516102fc91906130ae565b60405180910390f35b61031f600480360381019061031a9190612d63565b610e25565b005b34801561032d57600080fd5b50610336610ebf565b6040516103439190612ffd565b60405180910390f35b61036660048036038101906103619190612d63565b6111ab565b005b34801561037457600080fd5b5061037d6113e3565b60405161038a9190612d0b565b60405180910390f35b34801561039f57600080fd5b506103ba60048036038101906103b591906130f5565b611475565b005b6103d660048036038101906103d1919061319a565b61148b565b6040516103e391906130ae565b60405180910390f35b3480156103f857600080fd5b50610413600480360381019061040e919061332a565b611512565b005b34801561042157600080fd5b5061043c60048036038101906104379190612d63565b611574565b6040516104499190612d0b565b60405180910390f35b34801561045e57600080fd5b50610467611686565b6040516104749190612ffd565b60405180910390f35b34801561048957600080fd5b506104a4600480360381019061049f91906133ad565b6118ee565b6040516104b19190612c60565b60405180910390f35b60007f80ac58cd000000000000000000000000000000000000000000000000000000007bffffffffffffffffffffffffffffffffffffffffffffffffffffffff1916827bffffffffffffffffffffffffffffffffffffffffffffffffffffffff1916148061058557507f5b5e139f000000000000000000000000000000000000000000000000000000007bffffffffffffffffffffffffffffffffffffffffffffffffffffffff1916827bffffffffffffffffffffffffffffffffffffffffffffffffffffffff1916145b80610595575061059482611982565b5b9050919050565b6060600080546105ab9061341c565b80601f01602080910402602001604051908101604052809291908181526020018280546105d79061341c565b80156106245780601f106105f957610100808354040283529160200191610624565b820191906000526020600020905b81548152906001019060200180831161060757829003601f168201915b5050505050905090565b6000610639826119ec565b6004600083815260200190815260200160002060009054906101000a900473ffffffffffffffffffffffffffffffffffffffff169050919050565b600061067f82610ce8565b90508073ffffffffffffffffffffffffffffffffffffffff168373ffffffffffffffffffffffffffffffffffffffff16036106ef576040517f08c379a00000000000000000000000000000000000000000000000000000000081526004016106e6906134bf565b60405180910390fd5b8073ffffffffffffffffffffffffffffffffffffffff1661070e611a37565b73ffffffffffffffffffffffffffffffffffffffff16148061073d575061073c81610737611a37565b6118ee565b5b61077c576040517f08c379a000000000000000000000000000000000000000000000000000000000815260040161077390613551565b60405180910390fd5b6107868383611a3f565b505050565b600b5434146107cf576040517f08c379a00000000000000000000000000000000000000000000000000000000081526004016107c6906135bd565b60405180910390fd5b3373ffffffffffffffffffffffffffffffffffffffff166009600084815260200190815260200160002060020160009054906101000a900473ffffffffffffffffffffffffffffffffffffffff1673ffffffffffffffffffffffffffffffffffffffff1614610873576040517f08c379a000000000000000000000000000000000000000000000000000000000815260040161086a90613629565b60405180910390fd5b600015156009600084815260200190815260200160002060040160009054906101000a90505050806009600084815260200190815260200160002050503373ffffffffffffffffffffffffffffffffffffffff166009600084815260200190815260200160002060010160009054906101000a905050503073ffffffffffffffffffffffffffffffffffffffff166009600084815260200190815260200160002060020160009054906101000a9050505061092e6008611af8565b610939333083611b54565b817f148543af2976a27506276ef8982c517ba8afb96f5f1df32646f5307fbcac4410333084600060405161097094939291906136a8565b60405180910390a25050565b6060600061098a6007611e4d565b905060008060005b83811015610a32573373ffffffffffffffffffffffffffffffffffffffff16600960006001846109c2919061371c565b815260200190815260200160002060020160009054906101000a900473ffffffffffffffffffffffffffffffffffffffff1673ffffffffffffffffffffffffffffffffffffffff1603610a1f57600181610a1c919061371c565b92505b8080610a2a90613750565b915050610992565b5060008267ffffffffffffffff811115610a4f57610a4e6131ff565b5b604051908082528060200260200182016040528015610a8857816020015b610a75612b4f565b815260200190600190039081610a6d5790505b50905060005b84811015610c5d573373ffffffffffffffffffffffffffffffffffffffff1660096000600184610abe919061371c565b815260200190815260200160002060020160009054906101000a900473ffffffffffffffffffffffffffffffffffffffff1673ffffffffffffffffffffffffffffffffffffffff1603610c4a576000600182610b1a919061371c565b90506000600960008381526020019081526020016000209050806040518060a0016040529081600082015481526020016001820160009054906101000a900473ffffffffffffffffffffffffffffffffffffffff1673ffffffffffffffffffffffffffffffffffffffff1673ffffffffffffffffffffffffffffffffffffffff1681526020016002820160009054906101000a900473ffffffffffffffffffffffffffffffffffffffff1673ffffffffffffffffffffffffffffffffffffffff1673ffffffffffffffffffffffffffffffffffffffff168152602001600382015481526020016004820160009054906101000a900460ff161515151581525050848681518110610c2d57610c2c613798565b5b6020026020010181905250600185610c45919061371c565b945050505b8080610c5590613750565b915050610a8e565b508094505050505090565b610c79610c73611a37565b82611e5b565b610cb8576040517f08c379a0000000000000000000000000000000000000000000000000000000008152600401610caf90613839565b60405180910390fd5b610cc3838383611b54565b505050565b610ce383838360405180602001604052806000815250611512565b505050565b600080610cf483611ef0565b9050600073ffffffffffffffffffffffffffffffffffffffff168173ffffffffffffffffffffffffffffffffffffffff1603610d65576040517f08c379a0000000000000000000000000000000000000000000000000000000008152600401610d5c906138a5565b60405180910390fd5b80915050919050565b60008073ffffffffffffffffffffffffffffffffffffffff168273ffffffffffffffffffffffffffffffffffffffff1603610dde576040517f08c379a0000000000000000000000000000000000000000000000000000000008152600401610dd590613937565b60405180910390fd5b600360008373ffffffffffffffffffffffffffffffffffffffff1673ffffffffffffffffffffffffffffffffffffffff168152602001908152602001600020549050919050565b600a60009054906101000a900473ffffffffffffffffffffffffffffffffffffffff1673ffffffffffffffffffffffffffffffffffffffff163373ffffffffffffffffffffffffffffffffffffffff1614610eb5576040517f08c379a0000000000000000000000000000000000000000000000000000000008152600401610eac906139a3565b60405180910390fd5b80600b8190555050565b60606000610ecd6007611e4d565b905060008060005b83811015610f75573373ffffffffffffffffffffffffffffffffffffffff1660096000600184610f05919061371c565b815260200190815260200160002060010160009054906101000a900473ffffffffffffffffffffffffffffffffffffffff1673ffffffffffffffffffffffffffffffffffffffff1603610f6257600181610f5f919061371c565b92505b8080610f6d90613750565b915050610ed5565b5060008267ffffffffffffffff811115610f9257610f916131ff565b5b604051908082528060200260200182016040528015610fcb57816020015b610fb8612b4f565b815260200190600190039081610fb05790505b50905060005b848110156111a0573373ffffffffffffffffffffffffffffffffffffffff1660096000600184611001919061371c565b815260200190815260200160002060010160009054906101000a900473ffffffffffffffffffffffffffffffffffffffff1673ffffffffffffffffffffffffffffffffffffffff160361118d57600060018261105d919061371c565b90506000600960008381526020019081526020016000209050806040518060a0016040529081600082015481526020016001820160009054906101000a900473ffffffffffffffffffffffffffffffffffffffff1673ffffffffffffffffffffffffffffffffffffffff1673ffffffffffffffffffffffffffffffffffffffff1681526020016002820160009054906101000a900473ffffffffffffffffffffffffffffffffffffffff1673ffffffffffffffffffffffffffffffffffffffff1673ffffffffffffffffffffffffffffffffffffffff168152602001600382015481526020016004820160009054906101000a900460ff1615151515815250508486815181106111705761116f613798565b5b6020026020010181905250600185611188919061371c565b945050505b808061119890613750565b915050610fd1565b508094505050505090565b600060096000838152602001908152602001600020600301549050803414611208576040517f08c379a00000000000000000000000000000000000000000000000000000000081526004016111ff90613a0f565b60405180910390fd5b336009600084815260200190815260200160002060020160006101000a81548173ffffffffffffffffffffffffffffffffffffffff021916908373ffffffffffffffffffffffffffffffffffffffff16021790555060016009600084815260200190815260200160002060040160006101000a81548160ff02191690831515021790555060006009600084815260200190815260200160002060020160006101000a81548173ffffffffffffffffffffffffffffffffffffffff021916908373ffffffffffffffffffffffffffffffffffffffff1602179055506112ec6008611f2d565b6112f7303384611b54565b600a60009054906101000a900473ffffffffffffffffffffffffffffffffffffffff1673ffffffffffffffffffffffffffffffffffffffff166108fc600b549081150290604051600060405180830381858888f19350505050158015611361573d6000803e3d6000fd5b506009600083815260200190815260200160002060010160009054906101000a900473ffffffffffffffffffffffffffffffffffffffff1673ffffffffffffffffffffffffffffffffffffffff166108fc349081150290604051600060405180830381858888f193505050501580156113de573d6000803e3d6000fd5b505050565b6060600180546113f29061341c565b80601f016020809104026020016040519081016040528092919081815260200182805461141e9061341c565b801561146b5780601f106114405761010080835404028352916020019161146b565b820191906000526020600020905b81548152906001019060200180831161144e57829003601f168201915b5050505050905090565b611487611480611a37565b8383611f43565b5050565b60006114976007611f2d565b60006114a36007611e4d565b90506114af33826120af565b6114fd8186868080601f016020809104026020016040519081016040528093929190818152602001838380828437600081840152601f19601f820116905080830192505050505050506122cc565b6115078184612339565b809150509392505050565b61152361151d611a37565b83611e5b565b611562576040517f08c379a000000000000000000000000000000000000000000000000000000000815260040161155990613839565b60405180910390fd5b61156e8484848461253c565b50505050565b606061157f826119ec565b600060066000848152602001908152602001600020805461159f9061341c565b80601f01602080910402602001604051908101604052809291908181526020018280546115cb9061341c565b80156116185780601f106115ed57610100808354040283529160200191611618565b820191906000526020600020905b8154815290600101906020018083116115fb57829003601f168201915b505050505090506000611629612598565b9050600081510361163e578192505050611681565b60008251111561167357808260405160200161165b929190613a6b565b60405160208183030381529060405292505050611681565b61167c846125af565b925050505b919050565b606060006116946007611e4d565b905060006116a26008611e4d565b6116ac6007611e4d565b6116b69190613a8f565b90506000808267ffffffffffffffff8111156116d5576116d46131ff565b5b60405190808252806020026020018201604052801561170e57816020015b6116fb612b4f565b8152602001906001900390816116f35790505b50905060005b848110156118e3573073ffffffffffffffffffffffffffffffffffffffff1660096000600184611744919061371c565b815260200190815260200160002060020160009054906101000a900473ffffffffffffffffffffffffffffffffffffffff1673ffffffffffffffffffffffffffffffffffffffff16036118d05760006001826117a0919061371c565b90506000600960008381526020019081526020016000209050806040518060a0016040529081600082015481526020016001820160009054906101000a900473ffffffffffffffffffffffffffffffffffffffff1673ffffffffffffffffffffffffffffffffffffffff1673ffffffffffffffffffffffffffffffffffffffff1681526020016002820160009054906101000a900473ffffffffffffffffffffffffffffffffffffffff1673ffffffffffffffffffffffffffffffffffffffff1673ffffffffffffffffffffffffffffffffffffffff168152602001600382015481526020016004820160009054906101000a900460ff1615151515815250508486815181106118b3576118b2613798565b5b60200260200101819052506001856118cb919061371c565b945050505b80806118db90613750565b915050611714565b508094505050505090565b6000600560008473ffffffffffffffffffffffffffffffffffffffff1673ffffffffffffffffffffffffffffffffffffffff16815260200190815260200160002060008373ffffffffffffffffffffffffffffffffffffffff1673ffffffffffffffffffffffffffffffffffffffff16815260200190815260200160002060009054906101000a900460ff16905092915050565b60007f01ffc9a7000000000000000000000000000000000000000000000000000000007bffffffffffffffffffffffffffffffffffffffffffffffffffffffff1916827bffffffffffffffffffffffffffffffffffffffffffffffffffffffff1916149050919050565b6119f581612617565b611a34576040517f08c379a0000000000000000000000000000000000000000000000000000000008152600401611a2b906138a5565b60405180910390fd5b50565b600033905090565b816004600083815260200190815260200160002060006101000a81548173ffffffffffffffffffffffffffffffffffffffff021916908373ffffffffffffffffffffffffffffffffffffffff160217905550808273ffffffffffffffffffffffffffffffffffffffff16611ab283610ce8565b73ffffffffffffffffffffffffffffffffffffffff167f8c5be1e5ebec7d5bd14f71427d1e84f3dd0314c0f7b2291e5b200ac8c7c3b92560405160405180910390a45050565b60008160000154905060008111611b44576040517f08c379a0000000000000000000000000000000000000000000000000000000008152600401611b3b90613b0f565b60405180910390fd5b6001810382600001819055505050565b8273ffffffffffffffffffffffffffffffffffffffff16611b7482610ce8565b73ffffffffffffffffffffffffffffffffffffffff1614611bca576040517f08c379a0000000000000000000000000000000000000000000000000000000008152600401611bc190613ba1565b60405180910390fd5b600073ffffffffffffffffffffffffffffffffffffffff168273ffffffffffffffffffffffffffffffffffffffff1603611c39576040517f08c379a0000000000000000000000000000000000000000000000000000000008152600401611c3090613c33565b60405180910390fd5b611c468383836001612658565b8273ffffffffffffffffffffffffffffffffffffffff16611c6682610ce8565b73ffffffffffffffffffffffffffffffffffffffff1614611cbc576040517f08c379a0000000000000000000000000000000000000000000000000000000008152600401611cb390613ba1565b60405180910390fd5b6004600082815260200190815260200160002060006101000a81549073ffffffffffffffffffffffffffffffffffffffff02191690556001600360008573ffffffffffffffffffffffffffffffffffffffff1673ffffffffffffffffffffffffffffffffffffffff168152602001908152602001600020600082825403925050819055506001600360008473ffffffffffffffffffffffffffffffffffffffff1673ffffffffffffffffffffffffffffffffffffffff16815260200190815260200160002060008282540192505081905550816002600083815260200190815260200160002060006101000a81548173ffffffffffffffffffffffffffffffffffffffff021916908373ffffffffffffffffffffffffffffffffffffffff160217905550808273ffffffffffffffffffffffffffffffffffffffff168473ffffffffffffffffffffffffffffffffffffffff167fddf252ad1be2c89b69c2b068fc378daa952ba7f163c4a11628f55a4df523b3ef60405160405180910390a4611e48838383600161277e565b505050565b600081600001549050919050565b600080611e6783610ce8565b90508073ffffffffffffffffffffffffffffffffffffffff168473ffffffffffffffffffffffffffffffffffffffff161480611ea95750611ea881856118ee565b5b80611ee757508373ffffffffffffffffffffffffffffffffffffffff16611ecf8461062e565b73ffffffffffffffffffffffffffffffffffffffff16145b91505092915050565b60006002600083815260200190815260200160002060009054906101000a900473ffffffffffffffffffffffffffffffffffffffff169050919050565b6001816000016000828254019250508190555050565b8173ffffffffffffffffffffffffffffffffffffffff168373ffffffffffffffffffffffffffffffffffffffff1603611fb1576040517f08c379a0000000000000000000000000000000000000000000000000000000008152600401611fa890613c9f565b60405180910390fd5b80600560008573ffffffffffffffffffffffffffffffffffffffff1673ffffffffffffffffffffffffffffffffffffffff16815260200190815260200160002060008473ffffffffffffffffffffffffffffffffffffffff1673ffffffffffffffffffffffffffffffffffffffff16815260200190815260200160002060006101000a81548160ff0219169083151502179055508173ffffffffffffffffffffffffffffffffffffffff168373ffffffffffffffffffffffffffffffffffffffff167f17307eab39ab6107e8899845ad3d59bd9653f200f220920489ca2b5937696c31836040516120a29190612c60565b60405180910390a3505050565b600073ffffffffffffffffffffffffffffffffffffffff168273ffffffffffffffffffffffffffffffffffffffff160361211e576040517f08c379a000000000000000000000000000000000000000000000000000000000815260040161211590613d0b565b60405180910390fd5b61212781612617565b15612167576040517f08c379a000000000000000000000000000000000000000000000000000000000815260040161215e90613d77565b60405180910390fd5b612175600083836001612658565b61217e81612617565b156121be576040517f08c379a00000000000000000000000000000000000000000000000000000000081526004016121b590613d77565b60405180910390fd5b6001600360008473ffffffffffffffffffffffffffffffffffffffff1673ffffffffffffffffffffffffffffffffffffffff16815260200190815260200160002060008282540192505081905550816002600083815260200190815260200160002060006101000a81548173ffffffffffffffffffffffffffffffffffffffff021916908373ffffffffffffffffffffffffffffffffffffffff160217905550808273ffffffffffffffffffffffffffffffffffffffff16600073ffffffffffffffffffffffffffffffffffffffff167fddf252ad1be2c89b69c2b068fc378daa952ba7f163c4a11628f55a4df523b3ef60405160405180910390a46122c860008383600161277e565b5050565b6122d582612617565b612314576040517f08c379a000000000000000000000000000000000000000000000000000000000815260040161230b90613e09565b60405180910390fd5b806006600084815260200190815260200160002090816123349190613fcb565b505050565b600b54341461237d576040517f08c379a0000000000000000000000000000000000000000000000000000000008152600401612374906135bd565b60405180910390fd5b600081146123c0576040517f08c379a00000000000000000000000000000000000000000000000000000000081526004016123b7906140e9565b60405180910390fd5b6040518060a001604052808381526020013373ffffffffffffffffffffffffffffffffffffffff1681526020013073ffffffffffffffffffffffffffffffffffffffff16815260200182815260200160001515815250600960008481526020019081526020016000206000820151816000015560208201518160010160006101000a81548173ffffffffffffffffffffffffffffffffffffffff021916908373ffffffffffffffffffffffffffffffffffffffff16021790555060408201518160020160006101000a81548173ffffffffffffffffffffffffffffffffffffffff021916908373ffffffffffffffffffffffffffffffffffffffff1602179055506060820151816003015560808201518160040160006101000a81548160ff0219169083151502179055509050506124f9333084611b54565b817f148543af2976a27506276ef8982c517ba8afb96f5f1df32646f5307fbcac4410333084600060405161253094939291906136a8565b60405180910390a25050565b612547848484611b54565b61255384848484612784565b612592576040517f08c379a00000000000000000000000000000000000000000000000000000000081526004016125899061417b565b60405180910390fd5b50505050565b606060405180602001604052806000815250905090565b60606125ba826119ec565b60006125c4612598565b905060008151116125e4576040518060200160405280600081525061260f565b806125ee8461290b565b6040516020016125ff929190613a6b565b6040516020818303038152906040525b915050919050565b60008073ffffffffffffffffffffffffffffffffffffffff1661263983611ef0565b73ffffffffffffffffffffffffffffffffffffffff1614159050919050565b600181111561277857600073ffffffffffffffffffffffffffffffffffffffff168473ffffffffffffffffffffffffffffffffffffffff16146126ec5780600360008673ffffffffffffffffffffffffffffffffffffffff1673ffffffffffffffffffffffffffffffffffffffff16815260200190815260200160002060008282546126e49190613a8f565b925050819055505b600073ffffffffffffffffffffffffffffffffffffffff168373ffffffffffffffffffffffffffffffffffffffff16146127775780600360008573ffffffffffffffffffffffffffffffffffffffff1673ffffffffffffffffffffffffffffffffffffffff168152602001908152602001600020600082825461276f919061371c565b925050819055505b5b50505050565b50505050565b60006127a58473ffffffffffffffffffffffffffffffffffffffff166129d9565b156128fe578373ffffffffffffffffffffffffffffffffffffffff1663150b7a026127ce611a37565b8786866040518563ffffffff1660e01b81526004016127f094939291906141f0565b6020604051808303816000875af192505050801561282c57506040513d601f19601f820116820180604052508101906128299190614251565b60015b6128ae573d806000811461285c576040519150601f19603f3d011682016040523d82523d6000602084013e612861565b606091505b5060008151036128a6576040517f08c379a000000000000000000000000000000000000000000000000000000000815260040161289d9061417b565b60405180910390fd5b805181602001fd5b63150b7a0260e01b7bffffffffffffffffffffffffffffffffffffffffffffffffffffffff1916817bffffffffffffffffffffffffffffffffffffffffffffffffffffffff191614915050612903565b600190505b949350505050565b60606000600161291a846129fc565b01905060008167ffffffffffffffff811115612939576129386131ff565b5b6040519080825280601f01601f19166020018201604052801561296b5781602001600182028036833780820191505090505b509050600082602001820190505b6001156129ce578080600190039150507f3031323334353637383961626364656600000000000000000000000000000000600a86061a8153600a85816129c2576129c161427e565b5b04945060008503612979575b819350505050919050565b6000808273ffffffffffffffffffffffffffffffffffffffff163b119050919050565b600080600090507a184f03e93ff9f4daa797ed6e38ed64bf6a1f0100000000000000008310612a5a577a184f03e93ff9f4daa797ed6e38ed64bf6a1f0100000000000000008381612a5057612a4f61427e565b5b0492506040810190505b6d04ee2d6d415b85acef81000000008310612a97576d04ee2d6d415b85acef81000000008381612a8d57612a8c61427e565b5b0492506020810190505b662386f26fc100008310612ac657662386f26fc100008381612abc57612abb61427e565b5b0492506010810190505b6305f5e1008310612aef576305f5e1008381612ae557612ae461427e565b5b0492506008810190505b6127108310612b14576127108381612b0a57612b0961427e565b5b0492506004810190505b60648310612b375760648381612b2d57612b2c61427e565b5b0492506002810190505b600a8310612b46576001810190505b80915050919050565b6040518060a0016040528060008152602001600073ffffffffffffffffffffffffffffffffffffffff168152602001600073ffffffffffffffffffffffffffffffffffffffff168152602001600081526020016000151581525090565b6000604051905090565b600080fd5b600080fd5b60007fffffffff0000000000000000000000000000000000000000000000000000000082169050919050565b612bf581612bc0565b8114612c0057600080fd5b50565b600081359050612c1281612bec565b92915050565b600060208284031215612c2e57612c2d612bb6565b5b6000612c3c84828501612c03565b91505092915050565b60008115159050919050565b612c5a81612c45565b82525050565b6000602082019050612c756000830184612c51565b92915050565b600081519050919050565b600082825260208201905092915050565b60005b83811015612cb5578082015181840152602081019050612c9a565b60008484015250505050565b6000601f19601f8301169050919050565b6000612cdd82612c7b565b612ce78185612c86565b9350612cf7818560208601612c97565b612d0081612cc1565b840191505092915050565b60006020820190508181036000830152612d258184612cd2565b905092915050565b6000819050919050565b612d4081612d2d565b8114612d4b57600080fd5b50565b600081359050612d5d81612d37565b92915050565b600060208284031215612d7957612d78612bb6565b5b6000612d8784828501612d4e565b91505092915050565b600073ffffffffffffffffffffffffffffffffffffffff82169050919050565b6000612dbb82612d90565b9050919050565b612dcb81612db0565b82525050565b6000602082019050612de66000830184612dc2565b92915050565b612df581612db0565b8114612e0057600080fd5b50565b600081359050612e1281612dec565b92915050565b60008060408385031215612e2f57612e2e612bb6565b5b6000612e3d85828601612e03565b9250506020612e4e85828601612d4e565b9150509250929050565b60008060408385031215612e6f57612e6e612bb6565b5b6000612e7d85828601612d4e565b9250506020612e8e85828601612d4e565b9150509250929050565b600081519050919050565b600082825260208201905092915050565b6000819050602082019050919050565b612ecd81612d2d565b82525050565b6000612ede82612d90565b9050919050565b612eee81612ed3565b82525050565b612efd81612db0565b82525050565b612f0c81612c45565b82525050565b60a082016000820151612f286000850182612ec4565b506020820151612f3b6020850182612ee5565b506040820151612f4e6040850182612ef4565b506060820151612f616060850182612ec4565b506080820151612f746080850182612f03565b50505050565b6000612f868383612f12565b60a08301905092915050565b6000602082019050919050565b6000612faa82612e98565b612fb48185612ea3565b9350612fbf83612eb4565b8060005b83811015612ff0578151612fd78882612f7a565b9750612fe283612f92565b925050600181019050612fc3565b5085935050505092915050565b600060208201905081810360008301526130178184612f9f565b905092915050565b60008060006060848603121561303857613037612bb6565b5b600061304686828701612e03565b935050602061305786828701612e03565b925050604061306886828701612d4e565b9150509250925092565b60006020828403121561308857613087612bb6565b5b600061309684828501612e03565b91505092915050565b6130a881612d2d565b82525050565b60006020820190506130c3600083018461309f565b92915050565b6130d281612c45565b81146130dd57600080fd5b50565b6000813590506130ef816130c9565b92915050565b6000806040838503121561310c5761310b612bb6565b5b600061311a85828601612e03565b925050602061312b858286016130e0565b9150509250929050565b600080fd5b600080fd5b600080fd5b60008083601f84011261315a57613159613135565b5b8235905067ffffffffffffffff8111156131775761317661313a565b5b6020830191508360018202830111156131935761319261313f565b5b9250929050565b6000806000604084860312156131b3576131b2612bb6565b5b600084013567ffffffffffffffff8111156131d1576131d0612bbb565b5b6131dd86828701613144565b935093505060206131f086828701612d4e565b9150509250925092565b600080fd5b7f4e487b7100000000000000000000000000000000000000000000000000000000600052604160045260246000fd5b61323782612cc1565b810181811067ffffffffffffffff82111715613256576132556131ff565b5b80604052505050565b6000613269612bac565b9050613275828261322e565b919050565b600067ffffffffffffffff821115613295576132946131ff565b5b61329e82612cc1565b9050602081019050919050565b82818337600083830152505050565b60006132cd6132c88461327a565b61325f565b9050828152602081018484840111156132e9576132e86131fa565b5b6132f48482856132ab565b509392505050565b600082601f83011261331157613310613135565b5b81356133218482602086016132ba565b91505092915050565b6000806000806080858703121561334457613343612bb6565b5b600061335287828801612e03565b945050602061336387828801612e03565b935050604061337487828801612d4e565b925050606085013567ffffffffffffffff81111561339557613394612bbb565b5b6133a1878288016132fc565b91505092959194509250565b600080604083850312156133c4576133c3612bb6565b5b60006133d285828601612e03565b92505060206133e385828601612e03565b9150509250929050565b7f4e487b7100000000000000000000000000000000000000000000000000000000600052602260045260246000fd5b6000600282049050600182168061343457607f821691505b602082108103613447576134466133ed565b5b50919050565b7f4552433732313a20617070726f76616c20746f2063757272656e74206f776e6560008201527f7200000000000000000000000000000000000000000000000000000000000000602082015250565b60006134a9602183612c86565b91506134b48261344d565b604082019050919050565b600060208201905081810360008301526134d88161349c565b9050919050565b7f4552433732313a20617070726f76652063616c6c6572206973206e6f7420746f60008201527f6b656e206f776e6572206f7220617070726f76656420666f7220616c6c000000602082015250565b600061353b603d83612c86565b9150613546826134df565b604082019050919050565b6000602082019050818103600083015261356a8161352e565b9050919050565b7f5072696365206d757374206265206c697374696e672070726963650000000000600082015250565b60006135a7601b83612c86565b91506135b282613571565b602082019050919050565b600060208201905081810360008301526135d68161359a565b9050919050565b7f596f75206d75737420626520746865206f776e6572206f6620746865206e6674600082015250565b6000613613602083612c86565b915061361e826135dd565b602082019050919050565b6000602082019050818103600083015261364281613606565b9050919050565b6000819050919050565b600061366e61366961366484612d90565b613649565b612d90565b9050919050565b600061368082613653565b9050919050565b600061369282613675565b9050919050565b6136a281613687565b82525050565b60006080820190506136bd6000830187613699565b6136ca6020830186613699565b6136d7604083018561309f565b6136e46060830184612c51565b95945050505050565b7f4e487b7100000000000000000000000000000000000000000000000000000000600052601160045260246000fd5b600061372782612d2d565b915061373283612d2d565b925082820190508082111561374a576137496136ed565b5b92915050565b600061375b82612d2d565b91507fffffffffffffffffffffffffffffffffffffffffffffffffffffffffffffffff820361378d5761378c6136ed565b5b600182019050919050565b7f4e487b7100000000000000000000000000000000000000000000000000000000600052603260045260246000fd5b7f4552433732313a2063616c6c6572206973206e6f7420746f6b656e206f776e6560008201527f72206f7220617070726f76656400000000000000000000000000000000000000602082015250565b6000613823602d83612c86565b915061382e826137c7565b604082019050919050565b6000602082019050818103600083015261385281613816565b9050919050565b7f4552433732313a20696e76616c696420746f6b656e2049440000000000000000600082015250565b600061388f601883612c86565b915061389a82613859565b602082019050919050565b600060208201905081810360008301526138be81613882565b9050919050565b7f4552433732313a2061646472657373207a65726f206973206e6f74206120766160008201527f6c6964206f776e65720000000000000000000000000000000000000000000000602082015250565b6000613921602983612c86565b915061392c826138c5565b604082019050919050565b6000602082019050818103600083015261395081613914565b9050919050565b7f4f6e6c79206f776e65722063616e206163636573732069740000000000000000600082015250565b600061398d601883612c86565b915061399882613957565b602082019050919050565b600060208201905081810360008301526139bc81613980565b9050919050565b7f506c6561736520636865636b2074686520707269636520616d6f756e74000000600082015250565b60006139f9601d83612c86565b9150613a04826139c3565b602082019050919050565b60006020820190508181036000830152613a28816139ec565b9050919050565b600081905092915050565b6000613a4582612c7b565b613a4f8185613a2f565b9350613a5f818560208601612c97565b80840191505092915050565b6000613a778285613a3a565b9150613a838284613a3a565b91508190509392505050565b6000613a9a82612d2d565b9150613aa583612d2d565b9250828203905081811115613abd57613abc6136ed565b5b92915050565b7f436f756e7465723a2064656372656d656e74206f766572666c6f770000000000600082015250565b6000613af9601b83612c86565b9150613b0482613ac3565b602082019050919050565b60006020820190508181036000830152613b2881613aec565b9050919050565b7f4552433732313a207472616e736665722066726f6d20696e636f72726563742060008201527f6f776e6572000000000000000000000000000000000000000000000000000000602082015250565b6000613b8b602583612c86565b9150613b9682613b2f565b604082019050919050565b60006020820190508181036000830152613bba81613b7e565b9050919050565b7f4552433732313a207472616e7366657220746f20746865207a65726f2061646460008201527f7265737300000000000000000000000000000000000000000000000000000000602082015250565b6000613c1d602483612c86565b9150613c2882613bc1565b604082019050919050565b60006020820190508181036000830152613c4c81613c10565b9050919050565b7f4552433732313a20617070726f766520746f2063616c6c657200000000000000600082015250565b6000613c89601983612c86565b9150613c9482613c53565b602082019050919050565b60006020820190508181036000830152613cb881613c7c565b9050919050565b7f4552433732313a206d696e7420746f20746865207a65726f2061646472657373600082015250565b6000613cf5602083612c86565b9150613d0082613cbf565b602082019050919050565b60006020820190508181036000830152613d2481613ce8565b9050919050565b7f4552433732313a20746f6b656e20616c7265616479206d696e74656400000000600082015250565b6000613d61601c83612c86565b9150613d6c82613d2b565b602082019050919050565b60006020820190508181036000830152613d9081613d54565b9050919050565b7f45524337323155524953746f726167653a2055524920736574206f66206e6f6e60008201527f6578697374656e7420746f6b656e000000000000000000000000000000000000602082015250565b6000613df3602e83612c86565b9150613dfe82613d97565b604082019050919050565b60006020820190508181036000830152613e2281613de6565b9050919050565b60008190508160005260206000209050919050565b60006020601f8301049050919050565b600082821b905092915050565b600060088302613e8b7fffffffffffffffffffffffffffffffffffffffffffffffffffffffffffffffff82613e4e565b613e958683613e4e565b95508019841693508086168417925050509392505050565b6000613ec8613ec3613ebe84612d2d565b613649565b612d2d565b9050919050565b6000819050919050565b613ee283613ead565b613ef6613eee82613ecf565b848454613e5b565b825550505050565b600090565b613f0b613efe565b613f16818484613ed9565b505050565b5b81811015613f3a57613f2f600082613f03565b600181019050613f1c565b5050565b601f821115613f7f57613f5081613e29565b613f5984613e3e565b81016020851015613f68578190505b613f7c613f7485613e3e565b830182613f1b565b50505b505050565b600082821c905092915050565b6000613fa260001984600802613f84565b1980831691505092915050565b6000613fbb8383613f91565b9150826002028217905092915050565b613fd482612c7b565b67ffffffffffffffff811115613fed57613fec6131ff565b5b613ff7825461341c565b614002828285613f3e565b600060209050601f8311600181146140355760008415614023578287015190505b61402d8582613faf565b865550614095565b601f19841661404386613e29565b60005b8281101561406b57848901518255600182019150602085019450602081019050614046565b868310156140885784890151614084601f891682613f91565b8355505b6001600288020188555050505b505050505050565b7f5072696365207265717569726564000000000000000000000000000000000000600082015250565b60006140d3600e83612c86565b91506140de8261409d565b602082019050919050565b60006020820190508181036000830152614102816140c6565b9050919050565b7f4552433732313a207472616e7366657220746f206e6f6e20455243373231526560008201527f63656976657220696d706c656d656e7465720000000000000000000000000000602082015250565b6000614165603283612c86565b915061417082614109565b604082019050919050565b6000602082019050818103600083015261419481614158565b9050919050565b600081519050919050565b600082825260208201905092915050565b60006141c28261419b565b6141cc81856141a6565b93506141dc818560208601612c97565b6141e581612cc1565b840191505092915050565b60006080820190506142056000830187612dc2565b6142126020830186612dc2565b61421f604083018561309f565b818103606083015261423181846141b7565b905095945050505050565b60008151905061424b81612bec565b92915050565b60006020828403121561426757614266612bb6565b5b60006142758482850161423c565b91505092915050565b7f4e487b7100000000000000000000000000000000000000000000000000000000600052601260045260246000fdfea26469706673582212208f50a78aae72406f8e1b4e160c63ebec1201de810c1f023a850b8b532a7e2c1364736f6c63430008110033",
  "linkReferences": {},
  "deployedLinkReferences": {}
}